{"abi":[{"type":"constructor","inputs":[{"name":"_avsDirectory","type":"address","internalType":"address"},{"name":"_stakeRegistry","type":"address","internalType":"address"},{"name":"_rewardsCoordinator","type":"address","internalType":"address"},{"name":"_delegationManager","type":"address","internalType":"address"},{"name":"_underlyingUSD","type":"address","internalType":"address"}],"stateMutability":"nonpayable"},{"type":"function","name":"acceptOnRamp","inputs":[{"name":"onRampId","type":"bytes32","internalType":"bytes32"},{"name":"channelId","type":"string","internalType":"string"}],"outputs":[],"stateMutability":"nonpayable"},{"type":"function","name":"allTaskHashes","inputs":[{"name":"","type":"uint32","internalType":"uint32"}],"outputs":[{"name":"","type":"bytes32","internalType":"bytes32"}],"stateMutability":"view"},{"type":"function","name":"allTaskResponses","inputs":[{"name":"","type":"address","internalType":"address"},{"name":"","type":"uint32","internalType":"uint32"}],"outputs":[{"name":"","type":"bytes","internalType":"bytes"}],"stateMutability":"view"},{"type":"function","name":"allowance","inputs":[{"name":"owner","type":"address","internalType":"address"},{"name":"spender","type":"address","internalType":"address"}],"outputs":[{"name":"","type":"uint256","internalType":"uint256"}],"stateMutability":"view"},{"type":"function","name":"approve","inputs":[{"name":"spender","type":"address","internalType":"address"},{"name":"amount","type":"uint256","internalType":"uint256"}],"outputs":[{"name":"","type":"bool","internalType":"bool"}],"stateMutability":"nonpayable"},{"type":"function","name":"avsDirectory","inputs":[],"outputs":[{"name":"","type":"address","internalType":"address"}],"stateMutability":"view"},{"type":"function","name":"balanceOf","inputs":[{"name":"account","type":"address","internalType":"address"}],"outputs":[{"name":"","type":"uint256","internalType":"uint256"}],"stateMutability":"view"},{"type":"function","name":"completeOfframp","inputs":[{"name":"task","type":"tuple","internalType":"struct IPacificRampServiceManager.Task","components":[{"name":"channelId","type":"string","internalType":"string"},{"name":"transactionId","type":"string","internalType":"string"},{"name":"requestOfframpId","type":"bytes32","internalType":"bytes32"},{"name":"receiver","type":"address","internalType":"address"},{"name":"taskCreatedBlock","type":"uint32","internalType":"uint32"}]},{"name":"referenceTaskIndex","type":"uint32","internalType":"uint32"},{"name":"signature","type":"bytes","internalType":"bytes"}],"outputs":[],"stateMutability":"nonpayable"},{"type":"function","name":"completeOnramp","inputs":[{"name":"task","type":"tuple","internalType":"struct IPacificRampServiceManager.Task","components":[{"name":"channelId","type":"string","internalType":"string"},{"name":"transactionId","type":"string","internalType":"string"},{"name":"requestOfframpId","type":"bytes32","internalType":"bytes32"},{"name":"receiver","type":"address","internalType":"address"},{"name":"taskCreatedBlock","type":"uint32","internalType":"uint32"}]},{"name":"referenceTaskIndex","type":"uint32","internalType":"uint32"},{"name":"signature","type":"bytes","internalType":"bytes"}],"outputs":[],"stateMutability":"nonpayable"},{"type":"function","name":"createAVSRewardsSubmission","inputs":[{"name":"rewardsSubmissions","type":"tuple[]","internalType":"struct IRewardsCoordinator.RewardsSubmission[]","components":[{"name":"strategiesAndMultipliers","type":"tuple[]","internalType":"struct IRewardsCoordinator.StrategyAndMultiplier[]","components":[{"name":"strategy","type":"address","internalType":"contract IStrategy"},{"name":"multiplier","type":"uint96","internalType":"uint96"}]},{"name":"token","type":"address","internalType":"contract IERC20"},{"name":"amount","type":"uint256","internalType":"uint256"},{"name":"startTimestamp","type":"uint32","internalType":"uint32"},{"name":"duration","type":"uint32","internalType":"uint32"}]}],"outputs":[],"stateMutability":"nonpayable"},{"type":"function","name":"decimals","inputs":[],"outputs":[{"name":"","type":"uint8","internalType":"uint8"}],"stateMutability":"pure"},{"type":"function","name":"decreaseAllowance","inputs":[{"name":"spender","type":"address","internalType":"address"},{"name":"subtractedValue","type":"uint256","internalType":"uint256"}],"outputs":[{"name":"","type":"bool","internalType":"bool"}],"stateMutability":"nonpayable"},{"type":"function","name":"deregisterOperatorFromAVS","inputs":[{"name":"operator","type":"address","internalType":"address"}],"outputs":[],"stateMutability":"nonpayable"},{"type":"function","name":"fillOfframp","inputs":[{"name":"requestOfframpId","type":"bytes32","internalType":"bytes32"},{"name":"channelId","type":"string","internalType":"string"},{"name":"transactionId","type":"string","internalType":"string"}],"outputs":[{"name":"newTask","type":"tuple","internalType":"struct IPacificRampServiceManager.Task","components":[{"name":"channelId","type":"string","internalType":"string"},{"name":"transactionId","type":"string","internalType":"string"},{"name":"requestOfframpId","type":"bytes32","internalType":"bytes32"},{"name":"receiver","type":"address","internalType":"address"},{"name":"taskCreatedBlock","type":"uint32","internalType":"uint32"}]}],"stateMutability":"nonpayable"},{"type":"function","name":"getOperatorRestakedStrategies","inputs":[{"name":"_operator","type":"address","internalType":"address"}],"outputs":[{"name":"","type":"address[]","internalType":"address[]"}],"stateMutability":"view"},{"type":"function","name":"getRestakeableStrategies","inputs":[],"outputs":[{"name":"","type":"address[]","internalType":"address[]"}],"stateMutability":"view"},{"type":"function","name":"increaseAllowance","inputs":[{"name":"spender","type":"address","internalType":"address"},{"name":"addedValue","type":"uint256","internalType":"uint256"}],"outputs":[{"name":"","type":"bool","internalType":"bool"}],"stateMutability":"nonpayable"},{"type":"function","name":"latestTaskNum","inputs":[],"outputs":[{"name":"","type":"uint32","internalType":"uint32"}],"stateMutability":"view"},{"type":"function","name":"mint","inputs":[{"name":"amount","type":"uint256","internalType":"uint256"}],"outputs":[],"stateMutability":"nonpayable"},{"type":"function","name":"name","inputs":[],"outputs":[{"name":"","type":"string","internalType":"string"}],"stateMutability":"view"},{"type":"function","name":"offrampRequests","inputs":[{"name":"","type":"bytes32","internalType":"bytes32"}],"outputs":[{"name":"user","type":"address","internalType":"address"},{"name":"amount","type":"uint256","internalType":"uint256"},{"name":"amountRealWorld","type":"uint256","internalType":"uint256"},{"name":"channelAccount","type":"bytes32","internalType":"bytes32"},{"name":"channelId","type":"bytes32","internalType":"bytes32"},{"name":"requestCreatedBlock","type":"uint32","internalType":"uint32"},{"name":"isCompleted","type":"bool","internalType":"bool"}],"stateMutability":"view"},{"type":"function","name":"onrampRequests","inputs":[{"name":"","type":"bytes32","internalType":"bytes32"}],"outputs":[{"name":"buyer","type":"address","internalType":"address"},{"name":"amount","type":"uint256","internalType":"uint256"},{"name":"status","type":"uint8","internalType":"enum IPacificRampServiceManager.OnrampStatus"},{"name":"escrowAmount","type":"uint256","internalType":"uint256"},{"name":"receiptId","type":"string","internalType":"string"},{"name":"channelId","type":"string","internalType":"string"}],"stateMutability":"view"},{"type":"function","name":"owner","inputs":[],"outputs":[{"name":"","type":"address","internalType":"address"}],"stateMutability":"view"},{"type":"function","name":"registerOperatorToAVS","inputs":[{"name":"operator","type":"address","internalType":"address"},{"name":"operatorSignature","type":"tuple","internalType":"struct ISignatureUtils.SignatureWithSaltAndExpiry","components":[{"name":"signature","type":"bytes","internalType":"bytes"},{"name":"salt","type":"bytes32","internalType":"bytes32"},{"name":"expiry","type":"uint256","internalType":"uint256"}]}],"outputs":[],"stateMutability":"nonpayable"},{"type":"function","name":"renounceOwnership","inputs":[],"outputs":[],"stateMutability":"nonpayable"},{"type":"function","name":"requestOfframp","inputs":[{"name":"params","type":"tuple","internalType":"struct IPacificRampServiceManager.OfframpRequestParams","components":[{"name":"user","type":"address","internalType":"address"},{"name":"amount","type":"uint256","internalType":"uint256"},{"name":"amountRealWorld","type":"uint256","internalType":"uint256"},{"name":"channelAccount","type":"bytes32","internalType":"bytes32"},{"name":"channelId","type":"bytes32","internalType":"bytes32"}]}],"outputs":[],"stateMutability":"nonpayable"},{"type":"function","name":"requestOnRamp","inputs":[{"name":"amount","type":"uint256","internalType":"uint256"}],"outputs":[],"stateMutability":"nonpayable"},{"type":"function","name":"rewardsInitiator","inputs":[],"outputs":[{"name":"","type":"address","internalType":"address"}],"stateMutability":"view"},{"type":"function","name":"setRewardsInitiator","inputs":[{"name":"newRewardsInitiator","type":"address","internalType":"address"}],"outputs":[],"stateMutability":"nonpayable"},{"type":"function","name":"stake","inputs":[{"name":"amount","type":"uint256","internalType":"uint256"},{"name":"provider","type":"string","internalType":"string"}],"outputs":[],"stateMutability":"nonpayable"},{"type":"function","name":"stakeRegistry","inputs":[],"outputs":[{"name":"","type":"address","internalType":"address"}],"stateMutability":"view"},{"type":"function","name":"submitReceiptId","inputs":[{"name":"requestOnrampId","type":"bytes32","internalType":"bytes32"},{"name":"receiptId","type":"string","internalType":"string"}],"outputs":[{"name":"newTask","type":"tuple","internalType":"struct IPacificRampServiceManager.Task","components":[{"name":"channelId","type":"string","internalType":"string"},{"name":"transactionId","type":"string","internalType":"string"},{"name":"requestOfframpId","type":"bytes32","internalType":"bytes32"},{"name":"receiver","type":"address","internalType":"address"},{"name":"taskCreatedBlock","type":"uint32","internalType":"uint32"}]}],"stateMutability":"nonpayable"},{"type":"function","name":"symbol","inputs":[],"outputs":[{"name":"","type":"string","internalType":"string"}],"stateMutability":"view"},{"type":"function","name":"totalSupply","inputs":[],"outputs":[{"name":"","type":"uint256","internalType":"uint256"}],"stateMutability":"view"},{"type":"function","name":"transfer","inputs":[{"name":"to","type":"address","internalType":"address"},{"name":"amount","type":"uint256","internalType":"uint256"}],"outputs":[{"name":"","type":"bool","internalType":"bool"}],"stateMutability":"nonpayable"},{"type":"function","name":"transferFrom","inputs":[{"name":"from","type":"address","internalType":"address"},{"name":"to","type":"address","internalType":"address"},{"name":"amount","type":"uint256","internalType":"uint256"}],"outputs":[{"name":"","type":"bool","internalType":"bool"}],"stateMutability":"nonpayable"},{"type":"function","name":"transferOwnership","inputs":[{"name":"newOwner","type":"address","internalType":"address"}],"outputs":[],"stateMutability":"nonpayable"},{"type":"function","name":"underlyingUSD","inputs":[],"outputs":[{"name":"","type":"address","internalType":"address"}],"stateMutability":"view"},{"type":"function","name":"updateAVSMetadataURI","inputs":[{"name":"_metadataURI","type":"string","internalType":"string"}],"outputs":[],"stateMutability":"nonpayable"},{"type":"function","name":"withdraw","inputs":[{"name":"amount","type":"uint256","internalType":"uint256"}],"outputs":[],"stateMutability":"nonpayable"},{"type":"event","name":"Approval","inputs":[{"name":"owner","type":"address","indexed":true,"internalType":"address"},{"name":"spender","type":"address","indexed":true,"internalType":"address"},{"name":"value","type":"uint256","indexed":false,"internalType":"uint256"}],"anonymous":false},{"type":"event","name":"FillOfframp","inputs":[{"name":"requestOfframpId","type":"bytes32","indexed":false,"internalType":"bytes32"},{"name":"receiver","type":"address","indexed":false,"internalType":"address"},{"name":"proof","type":"bytes32","indexed":false,"internalType":"bytes32"},{"name":"reclaimProof","type":"bytes32","indexed":false,"internalType":"bytes32"}],"anonymous":false},{"type":"event","name":"Initialized","inputs":[{"name":"version","type":"uint8","indexed":false,"internalType":"uint8"}],"anonymous":false},{"type":"event","name":"Mint","inputs":[{"name":"user","type":"address","indexed":true,"internalType":"address"},{"name":"amount","type":"uint256","indexed":false,"internalType":"uint256"}],"anonymous":false},{"type":"event","name":"NewOfframpRequestCreated","inputs":[{"name":"taskIndex","type":"uint32","indexed":true,"internalType":"uint32"},{"name":"task","type":"tuple","indexed":false,"internalType":"struct IPacificRampServiceManager.Task","components":[{"name":"channelId","type":"string","internalType":"string"},{"name":"transactionId","type":"string","internalType":"string"},{"name":"requestOfframpId","type":"bytes32","internalType":"bytes32"},{"name":"receiver","type":"address","internalType":"address"},{"name":"taskCreatedBlock","type":"uint32","internalType":"uint32"}]}],"anonymous":false},{"type":"event","name":"NewTaskCreated","inputs":[{"name":"taskIndex","type":"uint32","indexed":true,"internalType":"uint32"},{"name":"task","type":"tuple","indexed":false,"internalType":"struct IPacificRampServiceManager.Task","components":[{"name":"channelId","type":"string","internalType":"string"},{"name":"transactionId","type":"string","internalType":"string"},{"name":"requestOfframpId","type":"bytes32","internalType":"bytes32"},{"name":"receiver","type":"address","internalType":"address"},{"name":"taskCreatedBlock","type":"uint32","internalType":"uint32"}]}],"anonymous":false},{"type":"event","name":"OnRampAccepted","inputs":[{"name":"onRampId","type":"bytes32","indexed":false,"internalType":"bytes32"},{"name":"channelId","type":"string","indexed":false,"internalType":"string"},{"name":"seller","type":"address","indexed":false,"internalType":"address"}],"anonymous":false},{"type":"event","name":"OnRampCompleted","inputs":[{"name":"onRampId","type":"bytes32","indexed":false,"internalType":"bytes32"},{"name":"buyer","type":"address","indexed":false,"internalType":"address"},{"name":"amount","type":"uint256","indexed":false,"internalType":"uint256"}],"anonymous":false},{"type":"event","name":"OnRampRequested","inputs":[{"name":"onRampId","type":"bytes32","indexed":false,"internalType":"bytes32"},{"name":"buyer","type":"address","indexed":false,"internalType":"address"},{"name":"amount","type":"uint256","indexed":false,"internalType":"uint256"}],"anonymous":false},{"type":"event","name":"OwnershipTransferred","inputs":[{"name":"previousOwner","type":"address","indexed":true,"internalType":"address"},{"name":"newOwner","type":"address","indexed":true,"internalType":"address"}],"anonymous":false},{"type":"event","name":"ReceiptIdSubmitted","inputs":[{"name":"onRampId","type":"bytes32","indexed":false,"internalType":"bytes32"},{"name":"receiptId","type":"string","indexed":false,"internalType":"string"}],"anonymous":false},{"type":"event","name":"RequestOfframp","inputs":[{"name":"requestOfframpId","type":"bytes32","indexed":false,"internalType":"bytes32"},{"name":"params","type":"tuple","indexed":false,"internalType":"struct IPacificRampServiceManager.NewOfframpRequest","components":[{"name":"user","type":"address","internalType":"address"},{"name":"amount","type":"uint256","internalType":"uint256"},{"name":"amountRealWorld","type":"uint256","internalType":"uint256"},{"name":"channelAccount","type":"bytes32","internalType":"bytes32"},{"name":"channelId","type":"bytes32","internalType":"bytes32"},{"name":"requestCreatedBlock","type":"uint32","internalType":"uint32"}]}],"anonymous":false},{"type":"event","name":"RewardsInitiatorUpdated","inputs":[{"name":"prevRewardsInitiator","type":"address","indexed":false,"internalType":"address"},{"name":"newRewardsInitiator","type":"address","indexed":false,"internalType":"address"}],"anonymous":false},{"type":"event","name":"StakeSettled","inputs":[{"name":"user","type":"address","indexed":true,"internalType":"address"},{"name":"amount","type":"uint256","indexed":false,"internalType":"uint256"},{"name":"provider","type":"string","indexed":false,"internalType":"string"}],"anonymous":false},{"type":"event","name":"TaskResponded","inputs":[{"name":"taskIndex","type":"uint32","indexed":true,"internalType":"uint32"},{"name":"task","type":"tuple","indexed":false,"internalType":"struct IPacificRampServiceManager.Task","components":[{"name":"channelId","type":"string","internalType":"string"},{"name":"transactionId","type":"string","internalType":"string"},{"name":"requestOfframpId","type":"bytes32","internalType":"bytes32"},{"name":"receiver","type":"address","internalType":"address"},{"name":"taskCreatedBlock","type":"uint32","internalType":"uint32"}]},{"name":"operator","type":"address","indexed":false,"internalType":"address"}],"anonymous":false},{"type":"event","name":"Transfer","inputs":[{"name":"from","type":"address","indexed":true,"internalType":"address"},{"name":"to","type":"address","indexed":true,"internalType":"address"},{"name":"value","type":"uint256","indexed":false,"internalType":"uint256"}],"anonymous":false},{"type":"event","name":"Withdraw","inputs":[{"name":"user","type":"address","indexed":true,"internalType":"address"},{"name":"amount","type":"uint256","indexed":false,"internalType":"uint256"}],"anonymous":false},{"type":"error","name":"CallerNotOperator","inputs":[]},{"type":"error","name":"OfframpRequestAlreadyCompleted","inputs":[]},{"type":"error","name":"OfframpRequestAlreadyExists","inputs":[]},{"type":"error","name":"OfframpRequestAmountIsZero","inputs":[]},{"type":"error","name":"OfframpRequestChannelAccountIsEmpty","inputs":[]},{"type":"error","name":"OfframpRequestChannelIdIsEmpty","inputs":[]},{"type":"error","name":"OfframpRequestDoesNotExist","inputs":[]}],"bytecode":{"object":"0x6101206040523461049b57613d8a60a0813803918261001d816104a0565b93849283398101031261049b57610033816104c5565b61003f602083016104c5565b9161004c604082016104c5565b90610065608061005e606084016104c5565b92016104c5565b9161007060406104a0565b94600a8652691c1858da599a58d554d160b21b602087015261009260406104a0565b9460048652631c1554d160e21b602087015260a05260805260c05260e05260005460ff8160081c166104465760ff8082161061040b575b5082516001600160401b03811161031457609a54600181811c91168015610401575b60208210146102f457601f811161039c575b506020601f8211600114610335578192939460009261032a575b50508160011b916000199060031b1c191617609a555b81516001600160401b03811161031457609b54600181811c9116801561030a575b60208210146102f457601f811161028f575b50602092601f821160011461022a579281929360009261021f575b50508160011b916000199060031b1c191617609b555b610100526040516138b090816104da82396080518181816109e0015281816112ce015281816115f60152818161192f0152611d83015260a051818181610f5e015281816112fe0152818161161f01526118ea015260c05181610240015260e05181611e4a01526101005181818161096d015281816114b30152818161180f01528181611bda015261206c0152f35b01519050388061017b565b601f19821693609b600052806000209160005b868110610277575083600195961061025e575b505050811b01609b55610191565b015160001960f88460031b161c19169055388080610250565b9192602060018192868501518155019401920161023d565b609b6000527fbba9db4cdbea0a37c207bbb83e20f828cd4441c49891101dc94fd20dc8efc349601f830160051c810191602084106102ea575b601f0160051c01905b8181106102de5750610160565b600081556001016102d1565b90915081906102c8565b634e487b7160e01b600052602260045260246000fd5b90607f169061014e565b634e487b7160e01b600052604160045260246000fd5b015190503880610117565b601f19821690609a600052806000209160005b8181106103845750958360019596971061036b575b505050811b01609a5561012d565b015160001960f88460031b161c1916905538808061035d565b9192602060018192868b015181550194019201610348565b609a6000527f44da158ba27f9252712a74ff6a55c5d531f69609f1f6e7f17c4443a8e2089be4601f830160051c810191602084106103f7575b601f0160051c01905b8181106103eb57506100fd565b600081556001016103de565b90915081906103d5565b90607f16906100eb565b60ff90811916176000557f7f26b83ff96e1f2b6a682f133852f6798a09c465da95921460cefb3847402498602060405160ff8152a1386100c9565b60405162461bcd60e51b815260206004820152602760248201527f496e697469616c697a61626c653a20636f6e747261637420697320696e697469604482015266616c697a696e6760c81b6064820152608490fd5b600080fd5b6040519190601f01601f191682016001600160401b0381118382101761031457604052565b51906001600160a01b038216820361049b5756fe6080604052600436101561001257600080fd5b6000803560e01c806304a9359c1461280657806306fdde031461275f578063095ea7b314612738578063151c5860146124b457806318160ddd146124965780631dbc8e2a146121c057806323b872dd146121015780632d89f6fc146120c85780632e1a7d4d14612046578063313ce5671461202a57806333cfb7b714611d525780633950935114611d015780633a3c51b914611a5d5780633bc28c8c146119dc578063496a30471461195e57806368304835146119195780636b3aa72e146118d457806370a082311461189b578063715018a61461183e5780637a5457de146117f95780638b00ce7c146117d55780638da5cb5b146117ac57806395d89b41146116dd5780639926ee7d14611554578063a0712d681461143b578063a0e08a9314611366578063a364f4da146112ad578063a3e5f6ee146110a9578063a457c2d714611004578063a9059cbb14610fd2578063a98fb35514610f22578063c20bab7f14610ea0578063dd62ed3e14610e4b578063decca52114610a91578063e481af9d146109bb578063e7e4e1f71461090f578063ee6f1e8b14610784578063f2fde38b146106bb578063fc299dee146106925763fce36c7d146101d557600080fd5b346102de5760203660031901126102de57600435906001600160401b0382116102de57366023830112156102de578160040135916001600160401b03831161068e57602481018360051b93366024868501011161068a576065546001600160a01b03163303610605577f0000000000000000000000000000000000000000000000000000000000000000845b82811061042657506001600160a01b031694853b1561042257906040519363fce36c7d60e01b8552816024860160206004880152526044808601938601019392869160c219813603015b8484106102ec5788808981818e8183818f03925af180156102e1576102cd5750f35b816102d791612a68565b6102de5780f35b80fd5b6040513d84823e3d90fd5b90919293949560431988820301845286358281121561041e5760a0820191908401602481013560421936839003018112156103ca57816024910101602081359101936001600160401b03821161041a578160061b3603851361041a57819060a085525260c0830193908c905b8082106103ce5750505060448101356001600160a01b038116908190036103ca579282608063ffffffff6103b660a460209796600199898099015260648101356040870152836103aa60848301612bec565b16606087015201612bec565b1691015298019401940192949391906102ab565b8b80fd5b909194853560018060a01b03811680910361041657815260208601356bffffffffffffffffffffffff8116809103610416576020820152604090810195019160010190610358565b8e80fd5b8c80fd5b8980fd5b8480fd5b8560206104876001600160a01b0361044983610443878a8c613694565b016136b6565b16604061045786898b613694565b6040516323b872dd60e01b8152336004820152306024820152910135604482015293849283919082906064820190565b03925af180156105a4576105e9575b506001600160a01b036104af6020610443848789613694565b604051636eb1769f60e11b81523060048201526001600160a01b03851660248201529160209183916044918391165afa9081156105a45790879182916105af575b5060209061055b906105286001600160a01b0361051285610443898c8e613694565b16916040610521888b8d613694565b0135612e4c565b60405163095ea7b360e01b81526001600160a01b0388166004820152602481019190915293849283919082906044820190565b03925af180156105a4579060019291610576575b5001610261565b6105969060203d811161059d575b61058e8183612a68565b8101906136ca565b503861056f565b503d610584565b6040513d89823e3d90fd5b9150506020813d82116105e1575b816105ca60209383612a68565b810103126105dd5751869061055b6104f0565b8680fd5b3d91506105bd565b6106009060203d811161059d5761058e8183612a68565b610496565b60405162461bcd60e51b815260206004820152605160248201527f4543445341536572766963654d616e61676572426173652e6f6e6c795265776160448201527f726473496e69746961746f723a2063616c6c6572206973206e6f7420746865206064820152703932bbb0b932399034b734ba34b0ba37b960791b608482015260a490fd5b8380fd5b5080fd5b50346102de57806003193601126102de576065546040516001600160a01b039091168152602090f35b50346102de5760203660031901126102de576106d5612b8e565b6106dd6135fa565b6001600160a01b0316801561073057603380546001600160a01b0319811683179091556001600160a01b03167f8be0079c531659141344cd1fd0a4f28419497f9722a3daafe3b4186f6b6457e08380a380f35b60405162461bcd60e51b815260206004820152602660248201527f4f776e61626c653a206e6577206f776e657220697320746865207a65726f206160448201526564647265737360d01b6064820152608490fd5b50346102de5761079336612c40565b50604082013580845260a060205260408420916107ba60018060a01b038454161515613032565b6002830160ff81541660038110156108fb576001036108be577fedea5523e6ebf24c8284ee9f56edf7567bc047ec0f5987a98f09894288cf15339363ffffffff937f8c44f9b60bb1ab02c69ea1130186c0d43c8a12a615227792ee168bdff906d48e92338952609e60205260408920868616600052602052610849610843604060002054612c9e565b15612f26565b805460ff19166002179055815460018301805490936108a2929091610877916001600160a01b03163061317f565b549254604080519384526001600160a01b039094166020840152928201929092529081906060820190565b0390a16108b86040519283921694339083612f85565b0390a280f35b60405162461bcd60e51b815260206004820152601560248201527452657175657374206e6f7420696e20657363726f7760581b6044820152606490fd5b634e487b7160e01b87526021600452602487fd5b50346102de5760403660031901126102de576004356024356001600160401b0381116109b7576109647f6f69ebb50e24d63f12d7e859d2b0da445fb74e4b10008756a9257a116d03c822913690600401612aa4565b9161099a8130337f00000000000000000000000000000000000000000000000000000000000000006001600160a01b0316613652565b60405190815260406020820152806108b833946040830190612aee565b8280fd5b50346102de57806003193601126102de576040516302e0740360e31b815281816004817f00000000000000000000000000000000000000000000000000000000000000006001600160a01b03165afa9081156102e1578291610a6f575b50610a248151516135c8565b915b81518051821015610a5d57600191906001600160a01b0390610a4990839061358f565b515116610a56828661358f565b5201610a26565b60405180610a6b8682612bfd565b0390f35b610a8b91503d8084833e610a838183612a68565b81019061347d565b38610a18565b50346102de5760203660031901126102de57600435908115610e0657604051602081019033825283604082015242606082015260608152610ad3608082612a68565b5190209160405192610ae484612a4d565b338452602084018281526040850194848652606081019584875260209660405191610b0f8984612a68565b8783526080840192835260405194610b278a87612a68565b88865260a0858101968752878a528a5260408920546001600160a01b0316610dc15786895260a08a5260408920945185546001600160a01b0319166001600160a01b03919091161785555160018501555160028401906003811015610dad5760ff801983541691161790555160038301556004820190518051906001600160401b038211610d9957610bc382610bbd8554612c9e565b85612dfa565b8890601f8311600114610d32579180610bf79260059695948b92610c8b575b50508160011b916000199060031b1c19161790565b90555b019051948551956001600160401b038711610d1e57610c1d87610bbd8554612c9e565b81601f8811600114610c9657509580610c6e9287987feb2ce3be6a6bf93e9fac2251a0723cbf06da0e42ccb719560e6d3a886159e8ab9892610c8b5750508160011b916000199060031b1c19161790565b90555b60408051918252336020830152810191909152606090a180f35b015190503880610be2565b9190601f1988168488528388209388905b828210610d065750509160019391897feb2ce3be6a6bf93e9fac2251a0723cbf06da0e42ccb719560e6d3a886159e8ab999a9410610ced575b505050811b019055610c71565b015160001960f88460031b161c19169055388080610ce0565b80600186978294978701518155019601940190610ca7565b634e487b7160e01b86526041600452602486fd5b8389528989209190601f1984168a5b8c828210610d8357505091600193918560059897969410610d6a575b505050811b019055610bfa565b015160001960f88460031b161c19169055388080610d5d565b6001859682939686015181550195019301610d41565b634e487b7160e01b88526041600452602488fd5b634e487b7160e01b89526021600452602489fd5b60405162461bcd60e51b8152600481018b9052601d60248201527f4f6e52616d70207265717565737420616c7265616479206578697374730000006044820152606490fd5b60405162461bcd60e51b815260206004820152601d60248201527f416d6f756e74206d7573742062652067726561746572207468616e20300000006044820152606490fd5b50346102de5760403660031901126102de576040610e67612b8e565b91610e70612ba4565b9260018060a01b031681526098602052209060018060a01b03166000526020526020604060002054604051908152f35b50346102de5760403660031901126102de57610eba612b8e565b906024359163ffffffff8316830361068e5763ffffffff9160409160018060a01b03168152609e602052209116600052602052610a6b610f07610f0e604060002060405192838092612cd8565b0382612a68565b604051918291602083526020830190612aee565b50346102de5760203660031901126102de57806004356001600160401b038111610fcf57610f54903690600401612aa4565b610f5c6135fa565b7f00000000000000000000000000000000000000000000000000000000000000006001600160a01b0316803b15610fcb5760405163a98fb35560e01b8152602060048201529183918391829084908290610fba906024830190612aee565b03925af180156102e1576102cd5750f35b5050fd5b50fd5b50346102de5760403660031901126102de57610ff9610fef612b8e565b602435903361317f565b602060405160018152f35b50346102de5760403660031901126102de5761101e612b8e565b60406024359233815260986020522060018060a01b0382166000526020526040600020549180831061105657610ff992039033613077565b60405162461bcd60e51b815260206004820152602560248201527f45524332303a2064656372656173656420616c6c6f77616e63652062656c6f77604482015264207a65726f60d81b6064820152608490fd5b50346102de576110b836612bba565b81835260a06020526040832080549293926110dd906001600160a01b03161515613032565b600281019060ff825416600381101561129957611254576005916111066001830154303361317f565b805460ff1916600117905582519491016001600160401b03851161124057611138856111328354612c9e565b83612dfa565b6020601f86116001146111be57858596611188927f76066ff216999fdff7fc3422c244b004d2778982c48571753176698c5832a62697916111b3575b508160011b916000199060031b1c19161790565b90555b6111a76040519283928352606060208401526060830190612aee565b3360408301520390a180f35b905085015138611174565b81855280852090601f198716865b81811061122857509187917f76066ff216999fdff7fc3422c244b004d2778982c48571753176698c5832a62697986001941061120f575b5050811b01905561118b565b86015160001960f88460031b161c191690553880611203565b9192602060018192868a0151815501940192016111cc565b634e487b7160e01b84526041600452602484fd5b60405162461bcd60e51b815260206004820152601960248201527f5265717565737420616c72656164792070726f636573736564000000000000006044820152606490fd5b634e487b7160e01b85526021600452602485fd5b50346102de5760203660031901126102de57806112c8612b8e565b6112fc337f00000000000000000000000000000000000000000000000000000000000000006001600160a01b031614612fad565b7f00000000000000000000000000000000000000000000000000000000000000006001600160a01b031690813b15610fcb576040516351b27a6d60e11b81526001600160a01b0390911660048201529082908290602490829084905af180156102e1576102cd5750f35b50346102de5760203660031901126102de57600435815260a060205260056040822060018060a01b038154169260018201549060ff600284015416906003840154926113de604051956113c7876113c08160048501612cd8565b0388612a68565b6113d76040518099819301612cd8565b0387612a68565b604051968752602087015260038210156114275750610a6b92859492611419926040870152606086015260c0608086015260c0850190612aee565b9083820360a0850152612aee565b634e487b7160e01b81526021600452602490fd5b50346102de5760203660031901126102de57600435331561150f5761146281609954612e4c565b60995533825260976020526040822061147c828254612e4c565b9055604051818152827fddf252ad1be2c89b69c2b068fc378daa952ba7f163c4a11628f55a4df523b3ef60203393a36114e08130337f00000000000000000000000000000000000000000000000000000000000000006001600160a01b0316613652565b6040519081527f0f6798a560793a54c3bcfe86a93cde1e73087d944c0ea20544137d412139688560203392a280f35b60405162461bcd60e51b815260206004820152601f60248201527f45524332303a206d696e7420746f20746865207a65726f2061646472657373006044820152606490fd5b50346102de5760403660031901126102de5761156e612b8e565b602435906001600160401b0382116109b757606060031983360301126109b75760405190606082018281106001600160401b038211176116c95760405283919060048401356001600160401b03811161068a576115d19060043691870101612aa4565b8252602082019160248501358352604460408201950135855261161d60018060a01b037f0000000000000000000000000000000000000000000000000000000000000000163314612fad565b7f00000000000000000000000000000000000000000000000000000000000000006001600160a01b031690813b15610422578461169093819560405198899687958694639926ee7d60e01b865260018060a01b0316600486015260406024860152516060604486015260a4850190612aee565b9151606484015251608483015203925af180156116bc576116ae5780f35b6116b791612a68565b388180f35b50604051903d90823e3d90fd5b634e487b7160e01b85526041600452602485fd5b50346102de57806003193601126102de576040519080609b549061170082612c9e565b80855291600181169081156117855750600114611728575b610a6b84610f0e81860382612a68565b609b81527fbba9db4cdbea0a37c207bbb83e20f828cd4441c49891101dc94fd20dc8efc349939250905b80821061176b57509091508101602001610f0e82611718565b919260018160209254838588010152019101909291611752565b60ff191660208087019190915292151560051b85019092019250610f0e9150839050611718565b50346102de57806003193601126102de576033546040516001600160a01b039091168152602090f35b50346102de57806003193601126102de57602063ffffffff609c5416604051908152f35b50346102de57806003193601126102de576040517f00000000000000000000000000000000000000000000000000000000000000006001600160a01b03168152602090f35b50346102de57806003193601126102de576118576135fa565b603380546001600160a01b0319811690915581906001600160a01b03167f8be0079c531659141344cd1fd0a4f28419497f9722a3daafe3b4186f6b6457e08280a380f35b50346102de5760203660031901126102de576020906040906001600160a01b036118c3612b8e565b168152609783522054604051908152f35b50346102de57806003193601126102de576040517f00000000000000000000000000000000000000000000000000000000000000006001600160a01b03168152602090f35b50346102de57806003193601126102de576040517f00000000000000000000000000000000000000000000000000000000000000006001600160a01b03168152602090f35b50346102de5760203660031901126102de57604060e0916004358152609f6020522060ff60018060a01b038254169160018101549060028101546003820154906005600484015493015493604051968752602087015260408601526060850152608084015263ffffffff811660a084015260201c16151560c0820152f35b50346102de5760203660031901126102de576119f6612b8e565b6119fe6135fa565b606554604080516001600160a01b038084168252841660208201529192917fe11cddf1816a43318ca175bbc52cd0185436e9cbead7c83acc54a73e461717e39190a16001600160a01b03166001600160a01b0319919091161760655580f35b50346102de57611a6c36612c40565b63ffffffff604093929351602081019060208252611a9f81611a916040820188612eab565b03601f198101835282612a68565b519020931692838552609d602052604085205403611c9657338452609e60205260408420838552602052611ad96108436040862054612c9e565b338452609e6020526040842083855260205260408420908051906001600160401b038211610d1e57611b0f82610bbd8554612c9e565b602090601f8311600114611c3357611b3e9291879183610c8b5750508160011b916000199060031b1c19161790565b90555b6040818101358452609f602052832080546001600160a01b031615611c245760058101805460ff8160201c16611c155764ff0000000019166401000000001790556001018054909190611b949030613305565b6060810135906001600160a01b03821682036104225791547fedea5523e6ebf24c8284ee9f56edf7567bc047ec0f5987a98f09894288cf1533926108b8929091611c07917f00000000000000000000000000000000000000000000000000000000000000006001600160a01b031661341c565b604051918291339083612f85565b63c06d432360e01b8652600486fd5b6314e818f960e31b8452600484fd5b8387528187209190601f198416885b818110611c7e5750908460019594939210611c65575b505050811b019055611b41565b015160001960f88460031b161c19169055388080611c58565b92936020600181928786015181550195019301611c42565b60405162461bcd60e51b815260206004820152603d60248201527f737570706c696564207461736b20646f6573206e6f74206d617463682074686560448201527f206f6e65207265636f7264656420696e2074686520636f6e74726163740000006064820152608490fd5b50346102de5760403660031901126102de57610ff990611d4b6040611d24612b8e565b338452609860209081528285206001600160a01b0383168652905292205460243590612e4c565b9033613077565b50346102de5760203660031901126102de57611d6c612b8e565b6040516302e0740360e31b815290919081816004817f00000000000000000000000000000000000000000000000000000000000000006001600160a01b03165afa9081156102e1578291612010575b509182515191611dca83613466565b91611dd86040519384612a68565b838352611de484613466565b602084019590601f1901368737825b858110611fe257505060408051639004134760e01b81526001600160a01b0390921660048301526024820152825160448201819052909490829086906064820190835b818110611fbd5750929350909150819003817f00000000000000000000000000000000000000000000000000000000000000006001600160a01b03165afa9384156116bc578194611f27575b5080815b848110611efb5750611e97906135c8565b93815b848110611eaf5760405180610a6b8882612bfd565b611eb9818361358f565b51611ec7575b600101611e9a565b91600190611ef3906001600160a01b03611ee1868861358f565b5116611eed828a61358f565b526135b9565b929050611ebf565b611f05818761358f565b51611f13575b600101611e86565b90611f1f6001916135b9565b919050611f0b565b9093503d8085833e611f398183612a68565b810190602081830312610422578051906001600160401b038211611fb957019080601f83011215610422578151611f6f81613466565b92611f7d6040519485612a68565b81845260208085019260051b8201019283116105dd57602001905b828210611fa9575050509238611e82565b8151815260209182019101611f98565b8580fd5b85516001600160a01b031683526020958601958795508a945090920191600101611e36565b600190818060a09995991b03611ff982855161358f565b515116612006828861358f565b5201959195611df3565b61202491503d8084833e610a838183612a68565b38611dbb565b50346102de57806003193601126102de57602060405160128152f35b50346102de5760203660031901126102de576004356120658133613305565b61209981337f00000000000000000000000000000000000000000000000000000000000000006001600160a01b031661341c565b6040519081527f884edad9ce6fa2440d8a54cc123490eb96d2768479d49ff9c7366125a942436460203392a280f35b50346102de5760203660031901126102de5760043563ffffffff811680910361068e578160409160209352609d83522054604051908152f35b50346102de5760603660031901126102de5761211b612b8e565b90612124612ba4565b6001600160a01b0383168252609860209081526040808420338552909152909120549160443591906001840161215f575b610ff9935061317f565b82841061217b5761217683610ff995033383613077565b612155565b60405162461bcd60e51b815260206004820152601d60248201527f45524332303a20696e73756666696369656e7420616c6c6f77616e63650000006044820152606490fd5b50346102de576121cf36612bba565b90916121d9612d5b565b83825260a06020526040822080549193916001600160a01b031633036124515760ff600282015416600381101561243d576001036123f857600401938151946001600160401b03861161124057612234866111328354612c9e565b602095601f81116001146123715790612289827f2800fecaafffb3290df0080e6c4b2120234ce79a0ac0e473ee44797a498eb6f1959493610a6b9988916111b357508160011b916000199060031b1c19161790565b90555b604093845161229b8682612a68565b600681526506f6e52616d760d41b60208201528652826020870152818587015233606087015263ffffffff4316608087015284805160208101906122e381611a918b85612b2f565b5190209163ffffffff609c54168152609d6020522055609c5463ffffffff61233e818316807f0b4e2ffdd3e1b42c57566666298c9850aa20414a992ae44175b5ef4c57cd37518951806123368d82612b2f565b0390a2612d88565b169063ffffffff191617609c556123648451928392835285602084015285830190612aee565b0390a15191829182612b2f565b81855286852096601f198216865b8181106123e0575091610a6b98600192827f2800fecaafffb3290df0080e6c4b2120234ce79a0ac0e473ee44797a498eb6f198979695106123c7575b5050811b01905561228c565b86015160001960f88460031b161c1916905538806123bb565b868301518a556001909901986020928301920161237f565b60405162461bcd60e51b815260206004820152601860248201527f52657175657374206973206e6f7420696e20657363726f7700000000000000006044820152606490fd5b634e487b7160e01b84526021600452602484fd5b60405162461bcd60e51b815260206004820152601d60248201527f4f6e6c792062757965722063616e207375626d697420726563656970740000006044820152606490fd5b50346102de57806003193601126102de576020609954604051908152f35b50346102de5760a03660031901126102de576040516124d281612a1c565b6124da612b8e565b815260243560208201818152604083019060443582526060840160643581526080850193608435855215612729578251156127295780511561271b5783511561270c57338552815183526040519361253185612a4d565b868552602080860188815260408088018a8152606089018b815260808a018c815260a08b018d81528c516001600160a01b03168c528951909552895190925286519052845190524363ffffffff168252519093918101906125928289612db6565b60c081526125a160e082612a68565b519020808952609f60205260408920549097906001600160a01b03166126fd5763ffffffff906125d38651303361317f565b519451955191519251935160405191169590946001600160a01b031660e086016001600160401b038111878210176126e95760409081529086526020808701928352868201938452606087019485526080870195865260a0870197885260c087018b81528a8c52609f8252828c20975188546001600160a01b0319166001600160a01b0390911617885592516001880155925160028701559251600386015592516004850155935160059093018054925164ffffffffff1990931663ffffffff90941693909317911515841b64ff000000001691909117909155519283527f52fb2af8546eef3a3648e9a8db5c66f5d6f9deb7fc20eef61f8ffd01b21c8f169260e09290916126e59190830190612db6565ba180f35b634e487b7160e01b8b52604160045260248bfd5b63353cdab760e21b8952600489fd5b63615f809760e01b8652600486fd5b62573e6160e71b8652600486fd5b63264f480b60e11b8652600486fd5b50346102de5760403660031901126102de57610ff9612755612b8e565b6024359033613077565b50346102de57806003193601126102de576040519080609a549061278282612c9e565b808552916001811690811561178557506001146127a957610a6b84610f0e81860382612a68565b609a81527f44da158ba27f9252712a74ff6a55c5d531f69609f1f6e7f17c4443a8e2089be4939250905b8082106127ec57509091508101602001610f0e82611718565b9192600181602092548385880101520191019092916127d3565b50346102de5760603660031901126102de576004356024356001600160401b0381116109b75761283a903690600401612aa4565b906044356001600160401b03811161068a5761285a903690600401612aa4565b91612863612d5b565b828552609f602052604085208054919490916001600160a01b031615612a0d57600582019260ff845460201c166129fe5791610a6b96608094927f28632964c2655977781f1b112a838c0e919674f019de8ff0b5c5ead7a2ab62f196948852602088015283604088015233606088015263ffffffff4316858801526040805160208101906128f581611a918c85612b2f565b5190209163ffffffff609c54168152609d6020522055609c5463ffffffff61294b818316807f0b4e2ffdd3e1b42c57566666298c9850aa20414a992ae44175b5ef4c57cd37516123368c60405191829182612b2f565b169063ffffffff191617609c55604051602081019061296e81611a918a85612b2f565b5190209160ff604051916004602084019460018060a01b0381541686526001810154604086015260028101546060860152600381015489860152015460a08401525463ffffffff811660c084015260201c16151560e082015260e081526129d761010082612a68565b5190209060405192835233602084015260408301526060820152a160405191829182612b2f565b63c06d432360e01b8752600487fd5b6314e818f960e31b8652600486fd5b60a081019081106001600160401b03821117612a3757604052565b634e487b7160e01b600052604160045260246000fd5b60c081019081106001600160401b03821117612a3757604052565b90601f801991011681019081106001600160401b03821117612a3757604052565b6001600160401b038111612a3757601f01601f191660200190565b81601f82011215612ae957602081359101612abe82612a89565b92612acc6040519485612a68565b82845282820111612ae95781600092602092838601378301015290565b600080fd5b919082519283825260005b848110612b1a575050826000602080949584010152601f8019910116010190565b80602080928401015182828601015201612af9565b6020815260a063ffffffff6080612b6a612b54865185602088015260c0870190612aee565b6020870151868203601f19016040880152612aee565b9460408101516060860152600180851b036060820151168286015201511691015290565b600435906001600160a01b0382168203612ae957565b602435906001600160a01b0382168203612ae957565b906040600319830112612ae95760043591602435906001600160401b038211612ae957612be991600401612aa4565b90565b359063ffffffff82168203612ae957565b602060408183019282815284518094520192019060005b818110612c215750505090565b82516001600160a01b0316845260209384019390920191600101612c14565b6060600319820112612ae9576004356001600160401b038111612ae95760a08183036003190112612ae9576004019160243563ffffffff81168103612ae95791604435906001600160401b038211612ae957612be991600401612aa4565b90600182811c92168015612cce575b6020831014612cb857565b634e487b7160e01b600052602260045260246000fd5b91607f1691612cad565b60009291815491612ce883612c9e565b8083529260018116908115612d3e5750600114612d0457505050565b60009081526020812093945091925b838310612d24575060209250010190565b600181602092949394548385870101520191019190612d13565b915050602093945060ff929192191683830152151560051b010190565b60405190612d6882612a1c565b600060808360608152606060208201528260408201528260608201520152565b63ffffffff60019116019063ffffffff8211612da057565b634e487b7160e01b600052601160045260246000fd5b63ffffffff60a08092600180831b03815116855260208101516020860152604081015160408601526060810151606086015260808101516080860152015116910152565b601f8211612e0757505050565b6000526020600020906020601f840160051c83019310612e42575b601f0160051c01905b818110612e36575050565b60008155600101612e2b565b9091508190612e22565b91908201809211612da057565b9035601e1982360301811215612ae95701602081359101916001600160401b038211612ae9578136038313612ae957565b908060209392818452848401376000828201840152601f01601f1916010190565b90612ee5612eca612ebc8480612e59565b60a0855260a0850191612e8a565b612ed76020850185612e59565b908483036020860152612e8a565b604083810135908301529160608101356001600160a01b03811690819003612ae957612f1f6080809363ffffffff93606087015201612bec565b1691015290565b15612f2d57565b60405162461bcd60e51b815260206004820152602a60248201527f4f70657261746f722068617320616c726561647920726573706f6e64656420746044820152696f20746865207461736b60b01b6064820152608490fd5b90612f9d602091949394604084526040840190612eab565b6001600160a01b03909416910152565b15612fb457565b60405162461bcd60e51b815260206004820152604a60248201527f4543445341536572766963654d616e61676572426173652e6f6e6c795374616b60448201527f6552656769737472793a2063616c6c6572206973206e6f7420746865207374616064820152696b65526567697374727960b01b608482015260a490fd5b1561303957565b60405162461bcd60e51b815260206004820152601660248201527514995c5d595cdd08191bd95cc81b9bdd08195e1a5cdd60521b6044820152606490fd5b6001600160a01b031690811561312e576001600160a01b03169182156130de5760207f8c5be1e5ebec7d5bd14f71427d1e84f3dd0314c0f7b2291e5b200ac8c7c3b925918360005260988252604060002085600052825280604060002055604051908152a3565b60405162461bcd60e51b815260206004820152602260248201527f45524332303a20617070726f766520746f20746865207a65726f206164647265604482015261737360f01b6064820152608490fd5b60405162461bcd60e51b8152602060048201526024808201527f45524332303a20617070726f76652066726f6d20746865207a65726f206164646044820152637265737360e01b6064820152608490fd5b6001600160a01b03169081156132b2576001600160a01b03169182156132615781600052609760205260406000205481811061320d57817fddf252ad1be2c89b69c2b068fc378daa952ba7f163c4a11628f55a4df523b3ef9260209285600052609784520360406000205584600052609782526040600020613202828254612e4c565b9055604051908152a3565b60405162461bcd60e51b815260206004820152602660248201527f45524332303a207472616e7366657220616d6f756e7420657863656564732062604482015265616c616e636560d01b6064820152608490fd5b60405162461bcd60e51b815260206004820152602360248201527f45524332303a207472616e7366657220746f20746865207a65726f206164647260448201526265737360e81b6064820152608490fd5b60405162461bcd60e51b815260206004820152602560248201527f45524332303a207472616e736665722066726f6d20746865207a65726f206164604482015264647265737360d81b6064820152608490fd5b6001600160a01b031680156133cd5780600052609760205260406000205482811061337d5782908260005260976020520360406000205560995491808303928311612da05760207fddf252ad1be2c89b69c2b068fc378daa952ba7f163c4a11628f55a4df523b3ef91600094609955604051908152a3565b60405162461bcd60e51b815260206004820152602260248201527f45524332303a206275726e20616d6f756e7420657863656564732062616c616e604482015261636560f01b6064820152608490fd5b60405162461bcd60e51b815260206004820152602160248201527f45524332303a206275726e2066726f6d20746865207a65726f206164647265736044820152607360f81b6064820152608490fd5b60405163a9059cbb60e01b60208201526001600160a01b03909216602483015260448201929092526134649161345f82606481015b03601f198101845283612a68565b6136e2565b565b6001600160401b038111612a375760051b60200190565b602081830312612ae9578051906001600160401b038211612ae9570190602082820312612ae95760405191602083018381106001600160401b03821117612a37576040528051906001600160401b038211612ae9570181601f82011215612ae9578051906134ea82613466565b926134f86040519485612a68565b82845260208085019360061b83010191818311612ae957602001925b8284106135245750505050815290565b604084830312612ae95760405190604082018281106001600160401b03821117612a375760405284516001600160a01b0381168103612ae95782526020850151906bffffffffffffffffffffffff82168203612ae95782602092836040950152815201930192613514565b80518210156135a35760209160051b010190565b634e487b7160e01b600052603260045260246000fd5b6000198114612da05760010190565b906135d282613466565b6135df6040519182612a68565b82815280926135f0601f1991613466565b0190602036910137565b6033546001600160a01b0316330361360e57565b606460405162461bcd60e51b815260206004820152602060248201527f4f776e61626c653a2063616c6c6572206973206e6f7420746865206f776e65726044820152fd5b6040516323b872dd60e01b60208201526001600160a01b03928316602482015292909116604483015260648201929092526134649161345f8260848101613451565b91908110156135a35760051b81013590609e1981360301821215612ae9570190565b356001600160a01b0381168103612ae95790565b90816020910312612ae957518015158103612ae95790565b60408051909290916001600160a01b03166136fd8484612a68565b602083527f5361666545524332303a206c6f772d6c6576656c2063616c6c206661696c65646020840152803b156137f257600082819282602061376e9796519301915af13d156137ea573d9061375282612a89565b9161375f86519384612a68565b82523d6000602084013e613836565b8051908161377b57505050565b60208061378c9383010191016136ca565b156137945750565b5162461bcd60e51b815260206004820152602a60248201527f5361666545524332303a204552433230206f7065726174696f6e20646964206e6044820152691bdd081cdd58d8d9595960b21b6064820152608490fd5b606090613836565b835162461bcd60e51b815260206004820152601d60248201527f416464726573733a2063616c6c20746f206e6f6e2d636f6e74726163740000006044820152606490fd5b90919015613842575090565b8151156138525750805190602001fd5b60405162461bcd60e51b815260206004820152908190613876906024830190612aee565b0390fdfea264697066735822122003e9ea0dcf40a4af2085353ae542b4d71f0b7ac963744d60fc60d14ec1ce637464736f6c634300081a0033","linkReferences":{}},"methodIdentifiers":{"acceptOnRamp(bytes32,string)":"a3e5f6ee","allTaskHashes(uint32)":"2d89f6fc","allTaskResponses(address,uint32)":"c20bab7f","allowance(address,address)":"dd62ed3e","approve(address,uint256)":"095ea7b3","avsDirectory()":"6b3aa72e","balanceOf(address)":"70a08231","completeOfframp((string,string,bytes32,address,uint32),uint32,bytes)":"3a3c51b9","completeOnramp((string,string,bytes32,address,uint32),uint32,bytes)":"ee6f1e8b","createAVSRewardsSubmission(((address,uint96)[],address,uint256,uint32,uint32)[])":"fce36c7d","decimals()":"313ce567","decreaseAllowance(address,uint256)":"a457c2d7","deregisterOperatorFromAVS(address)":"a364f4da","fillOfframp(bytes32,string,string)":"04a9359c","getOperatorRestakedStrategies(address)":"33cfb7b7","getRestakeableStrategies()":"e481af9d","increaseAllowance(address,uint256)":"39509351","latestTaskNum()":"8b00ce7c","mint(uint256)":"a0712d68","name()":"06fdde03","offrampRequests(bytes32)":"496a3047","onrampRequests(bytes32)":"a0e08a93","owner()":"8da5cb5b","registerOperatorToAVS(address,(bytes,bytes32,uint256))":"9926ee7d","renounceOwnership()":"715018a6","requestOfframp((address,uint256,uint256,bytes32,bytes32))":"151c5860","requestOnRamp(uint256)":"decca521","rewardsInitiator()":"fc299dee","setRewardsInitiator(address)":"3bc28c8c","stake(uint256,string)":"e7e4e1f7","stakeRegistry()":"68304835","submitReceiptId(bytes32,string)":"1dbc8e2a","symbol()":"95d89b41","totalSupply()":"18160ddd","transfer(address,uint256)":"a9059cbb","transferFrom(address,address,uint256)":"23b872dd","transferOwnership(address)":"f2fde38b","underlyingUSD()":"7a5457de","updateAVSMetadataURI(string)":"a98fb355","withdraw(uint256)":"2e1a7d4d"},"id":110}