{"abi":[{"type":"constructor","inputs":[{"name":"_avsDirectory","type":"address","internalType":"address"},{"name":"_stakeRegistry","type":"address","internalType":"address"},{"name":"_rewardsCoordinator","type":"address","internalType":"address"},{"name":"_delegationManager","type":"address","internalType":"address"},{"name":"_underlyingUSD","type":"address","internalType":"address"}],"stateMutability":"nonpayable"},{"type":"function","name":"acceptOnRamp","inputs":[{"name":"onRampId","type":"bytes32","internalType":"bytes32"},{"name":"channelId","type":"string","internalType":"string"}],"outputs":[],"stateMutability":"nonpayable"},{"type":"function","name":"allTaskHashes","inputs":[{"name":"","type":"uint32","internalType":"uint32"}],"outputs":[{"name":"","type":"bytes32","internalType":"bytes32"}],"stateMutability":"view"},{"type":"function","name":"allTaskResponses","inputs":[{"name":"","type":"address","internalType":"address"},{"name":"","type":"uint32","internalType":"uint32"}],"outputs":[{"name":"","type":"bytes","internalType":"bytes"}],"stateMutability":"view"},{"type":"function","name":"allowance","inputs":[{"name":"owner","type":"address","internalType":"address"},{"name":"spender","type":"address","internalType":"address"}],"outputs":[{"name":"","type":"uint256","internalType":"uint256"}],"stateMutability":"view"},{"type":"function","name":"approve","inputs":[{"name":"spender","type":"address","internalType":"address"},{"name":"amount","type":"uint256","internalType":"uint256"}],"outputs":[{"name":"","type":"bool","internalType":"bool"}],"stateMutability":"nonpayable"},{"type":"function","name":"avsDirectory","inputs":[],"outputs":[{"name":"","type":"address","internalType":"address"}],"stateMutability":"view"},{"type":"function","name":"balanceOf","inputs":[{"name":"account","type":"address","internalType":"address"}],"outputs":[{"name":"","type":"uint256","internalType":"uint256"}],"stateMutability":"view"},{"type":"function","name":"completeOfframp","inputs":[{"name":"task","type":"tuple","internalType":"struct IPacificRampServiceManager.Task","components":[{"name":"channelId","type":"string","internalType":"string"},{"name":"transactionId","type":"string","internalType":"string"},{"name":"requestOfframpId","type":"bytes32","internalType":"bytes32"},{"name":"receiver","type":"address","internalType":"address"},{"name":"taskCreatedBlock","type":"uint32","internalType":"uint32"}]},{"name":"referenceTaskIndex","type":"uint32","internalType":"uint32"},{"name":"signature","type":"bytes","internalType":"bytes"}],"outputs":[],"stateMutability":"nonpayable"},{"type":"function","name":"completeOnramp","inputs":[{"name":"task","type":"tuple","internalType":"struct IPacificRampServiceManager.Task","components":[{"name":"channelId","type":"string","internalType":"string"},{"name":"transactionId","type":"string","internalType":"string"},{"name":"requestOfframpId","type":"bytes32","internalType":"bytes32"},{"name":"receiver","type":"address","internalType":"address"},{"name":"taskCreatedBlock","type":"uint32","internalType":"uint32"}]},{"name":"referenceTaskIndex","type":"uint32","internalType":"uint32"},{"name":"signature","type":"bytes","internalType":"bytes"}],"outputs":[],"stateMutability":"nonpayable"},{"type":"function","name":"createAVSRewardsSubmission","inputs":[{"name":"rewardsSubmissions","type":"tuple[]","internalType":"struct IRewardsCoordinator.RewardsSubmission[]","components":[{"name":"strategiesAndMultipliers","type":"tuple[]","internalType":"struct IRewardsCoordinator.StrategyAndMultiplier[]","components":[{"name":"strategy","type":"address","internalType":"contract IStrategy"},{"name":"multiplier","type":"uint96","internalType":"uint96"}]},{"name":"token","type":"address","internalType":"contract IERC20"},{"name":"amount","type":"uint256","internalType":"uint256"},{"name":"startTimestamp","type":"uint32","internalType":"uint32"},{"name":"duration","type":"uint32","internalType":"uint32"}]}],"outputs":[],"stateMutability":"nonpayable"},{"type":"function","name":"decimals","inputs":[],"outputs":[{"name":"","type":"uint8","internalType":"uint8"}],"stateMutability":"pure"},{"type":"function","name":"decreaseAllowance","inputs":[{"name":"spender","type":"address","internalType":"address"},{"name":"subtractedValue","type":"uint256","internalType":"uint256"}],"outputs":[{"name":"","type":"bool","internalType":"bool"}],"stateMutability":"nonpayable"},{"type":"function","name":"deregisterOperatorFromAVS","inputs":[{"name":"operator","type":"address","internalType":"address"}],"outputs":[],"stateMutability":"nonpayable"},{"type":"function","name":"fillOfframp","inputs":[{"name":"requestOfframpId","type":"bytes32","internalType":"bytes32"},{"name":"channelId","type":"string","internalType":"string"},{"name":"transactionId","type":"string","internalType":"string"}],"outputs":[{"name":"newTask","type":"tuple","internalType":"struct IPacificRampServiceManager.Task","components":[{"name":"channelId","type":"string","internalType":"string"},{"name":"transactionId","type":"string","internalType":"string"},{"name":"requestOfframpId","type":"bytes32","internalType":"bytes32"},{"name":"receiver","type":"address","internalType":"address"},{"name":"taskCreatedBlock","type":"uint32","internalType":"uint32"}]}],"stateMutability":"nonpayable"},{"type":"function","name":"getOperatorRestakedStrategies","inputs":[{"name":"_operator","type":"address","internalType":"address"}],"outputs":[{"name":"","type":"address[]","internalType":"address[]"}],"stateMutability":"view"},{"type":"function","name":"getRestakeableStrategies","inputs":[],"outputs":[{"name":"","type":"address[]","internalType":"address[]"}],"stateMutability":"view"},{"type":"function","name":"increaseAllowance","inputs":[{"name":"spender","type":"address","internalType":"address"},{"name":"addedValue","type":"uint256","internalType":"uint256"}],"outputs":[{"name":"","type":"bool","internalType":"bool"}],"stateMutability":"nonpayable"},{"type":"function","name":"latestTaskNum","inputs":[],"outputs":[{"name":"","type":"uint32","internalType":"uint32"}],"stateMutability":"view"},{"type":"function","name":"mint","inputs":[{"name":"amount","type":"uint256","internalType":"uint256"}],"outputs":[],"stateMutability":"nonpayable"},{"type":"function","name":"name","inputs":[],"outputs":[{"name":"","type":"string","internalType":"string"}],"stateMutability":"view"},{"type":"function","name":"offrampRequests","inputs":[{"name":"","type":"bytes32","internalType":"bytes32"}],"outputs":[{"name":"user","type":"address","internalType":"address"},{"name":"amount","type":"uint256","internalType":"uint256"},{"name":"amountRealWorld","type":"uint256","internalType":"uint256"},{"name":"channelAccount","type":"bytes32","internalType":"bytes32"},{"name":"channelId","type":"bytes32","internalType":"bytes32"},{"name":"requestCreatedBlock","type":"uint32","internalType":"uint32"},{"name":"isCompleted","type":"bool","internalType":"bool"}],"stateMutability":"view"},{"type":"function","name":"onrampRequests","inputs":[{"name":"","type":"bytes32","internalType":"bytes32"}],"outputs":[{"name":"buyer","type":"address","internalType":"address"},{"name":"amount","type":"uint256","internalType":"uint256"},{"name":"status","type":"uint8","internalType":"enum IPacificRampServiceManager.OnrampStatus"},{"name":"escrowAmount","type":"uint256","internalType":"uint256"},{"name":"receiptId","type":"string","internalType":"string"},{"name":"channelId","type":"string","internalType":"string"}],"stateMutability":"view"},{"type":"function","name":"owner","inputs":[],"outputs":[{"name":"","type":"address","internalType":"address"}],"stateMutability":"view"},{"type":"function","name":"registerOperatorToAVS","inputs":[{"name":"operator","type":"address","internalType":"address"},{"name":"operatorSignature","type":"tuple","internalType":"struct ISignatureUtils.SignatureWithSaltAndExpiry","components":[{"name":"signature","type":"bytes","internalType":"bytes"},{"name":"salt","type":"bytes32","internalType":"bytes32"},{"name":"expiry","type":"uint256","internalType":"uint256"}]}],"outputs":[],"stateMutability":"nonpayable"},{"type":"function","name":"renounceOwnership","inputs":[],"outputs":[],"stateMutability":"nonpayable"},{"type":"function","name":"requestOfframp","inputs":[{"name":"params","type":"tuple","internalType":"struct IPacificRampServiceManager.OfframpRequestParams","components":[{"name":"user","type":"address","internalType":"address"},{"name":"amount","type":"uint256","internalType":"uint256"},{"name":"amountRealWorld","type":"uint256","internalType":"uint256"},{"name":"channelAccount","type":"bytes32","internalType":"bytes32"},{"name":"channelId","type":"bytes32","internalType":"bytes32"}]}],"outputs":[],"stateMutability":"nonpayable"},{"type":"function","name":"requestOnRamp","inputs":[{"name":"amount","type":"uint256","internalType":"uint256"}],"outputs":[],"stateMutability":"nonpayable"},{"type":"function","name":"rewardsInitiator","inputs":[],"outputs":[{"name":"","type":"address","internalType":"address"}],"stateMutability":"view"},{"type":"function","name":"setRewardsInitiator","inputs":[{"name":"newRewardsInitiator","type":"address","internalType":"address"}],"outputs":[],"stateMutability":"nonpayable"},{"type":"function","name":"stake","inputs":[{"name":"amount","type":"uint256","internalType":"uint256"},{"name":"provider","type":"string","internalType":"string"}],"outputs":[],"stateMutability":"nonpayable"},{"type":"function","name":"stakeRegistry","inputs":[],"outputs":[{"name":"","type":"address","internalType":"address"}],"stateMutability":"view"},{"type":"function","name":"submitReceiptId","inputs":[{"name":"requestOnrampId","type":"bytes32","internalType":"bytes32"},{"name":"receiptId","type":"string","internalType":"string"}],"outputs":[{"name":"newTask","type":"tuple","internalType":"struct IPacificRampServiceManager.Task","components":[{"name":"channelId","type":"string","internalType":"string"},{"name":"transactionId","type":"string","internalType":"string"},{"name":"requestOfframpId","type":"bytes32","internalType":"bytes32"},{"name":"receiver","type":"address","internalType":"address"},{"name":"taskCreatedBlock","type":"uint32","internalType":"uint32"}]}],"stateMutability":"nonpayable"},{"type":"function","name":"symbol","inputs":[],"outputs":[{"name":"","type":"string","internalType":"string"}],"stateMutability":"view"},{"type":"function","name":"totalSupply","inputs":[],"outputs":[{"name":"","type":"uint256","internalType":"uint256"}],"stateMutability":"view"},{"type":"function","name":"transfer","inputs":[{"name":"to","type":"address","internalType":"address"},{"name":"amount","type":"uint256","internalType":"uint256"}],"outputs":[{"name":"","type":"bool","internalType":"bool"}],"stateMutability":"nonpayable"},{"type":"function","name":"transferFrom","inputs":[{"name":"from","type":"address","internalType":"address"},{"name":"to","type":"address","internalType":"address"},{"name":"amount","type":"uint256","internalType":"uint256"}],"outputs":[{"name":"","type":"bool","internalType":"bool"}],"stateMutability":"nonpayable"},{"type":"function","name":"transferOwnership","inputs":[{"name":"newOwner","type":"address","internalType":"address"}],"outputs":[],"stateMutability":"nonpayable"},{"type":"function","name":"underlyingUSD","inputs":[],"outputs":[{"name":"","type":"address","internalType":"address"}],"stateMutability":"view"},{"type":"function","name":"updateAVSMetadataURI","inputs":[{"name":"_metadataURI","type":"string","internalType":"string"}],"outputs":[],"stateMutability":"nonpayable"},{"type":"function","name":"withdraw","inputs":[{"name":"amount","type":"uint256","internalType":"uint256"}],"outputs":[],"stateMutability":"nonpayable"},{"type":"event","name":"Approval","inputs":[{"name":"owner","type":"address","indexed":true,"internalType":"address"},{"name":"spender","type":"address","indexed":true,"internalType":"address"},{"name":"value","type":"uint256","indexed":false,"internalType":"uint256"}],"anonymous":false},{"type":"event","name":"FillOfframp","inputs":[{"name":"requestOfframpId","type":"bytes32","indexed":false,"internalType":"bytes32"},{"name":"receiver","type":"address","indexed":false,"internalType":"address"},{"name":"proof","type":"bytes32","indexed":false,"internalType":"bytes32"},{"name":"reclaimProof","type":"bytes32","indexed":false,"internalType":"bytes32"}],"anonymous":false},{"type":"event","name":"Initialized","inputs":[{"name":"version","type":"uint8","indexed":false,"internalType":"uint8"}],"anonymous":false},{"type":"event","name":"Mint","inputs":[{"name":"user","type":"address","indexed":true,"internalType":"address"},{"name":"amount","type":"uint256","indexed":false,"internalType":"uint256"}],"anonymous":false},{"type":"event","name":"NewOfframpRequestCreated","inputs":[{"name":"taskIndex","type":"uint32","indexed":true,"internalType":"uint32"},{"name":"task","type":"tuple","indexed":false,"internalType":"struct IPacificRampServiceManager.Task","components":[{"name":"channelId","type":"string","internalType":"string"},{"name":"transactionId","type":"string","internalType":"string"},{"name":"requestOfframpId","type":"bytes32","internalType":"bytes32"},{"name":"receiver","type":"address","internalType":"address"},{"name":"taskCreatedBlock","type":"uint32","internalType":"uint32"}]}],"anonymous":false},{"type":"event","name":"NewTaskCreated","inputs":[{"name":"taskIndex","type":"uint32","indexed":true,"internalType":"uint32"},{"name":"task","type":"tuple","indexed":false,"internalType":"struct IPacificRampServiceManager.Task","components":[{"name":"channelId","type":"string","internalType":"string"},{"name":"transactionId","type":"string","internalType":"string"},{"name":"requestOfframpId","type":"bytes32","internalType":"bytes32"},{"name":"receiver","type":"address","internalType":"address"},{"name":"taskCreatedBlock","type":"uint32","internalType":"uint32"}]}],"anonymous":false},{"type":"event","name":"OnRampAccepted","inputs":[{"name":"onRampId","type":"bytes32","indexed":false,"internalType":"bytes32"},{"name":"channelId","type":"string","indexed":false,"internalType":"string"},{"name":"seller","type":"address","indexed":false,"internalType":"address"}],"anonymous":false},{"type":"event","name":"OnRampCompleted","inputs":[{"name":"onRampId","type":"bytes32","indexed":false,"internalType":"bytes32"},{"name":"buyer","type":"address","indexed":false,"internalType":"address"},{"name":"amount","type":"uint256","indexed":false,"internalType":"uint256"}],"anonymous":false},{"type":"event","name":"OnRampRequested","inputs":[{"name":"onRampId","type":"bytes32","indexed":false,"internalType":"bytes32"},{"name":"buyer","type":"address","indexed":false,"internalType":"address"},{"name":"amount","type":"uint256","indexed":false,"internalType":"uint256"}],"anonymous":false},{"type":"event","name":"OwnershipTransferred","inputs":[{"name":"previousOwner","type":"address","indexed":true,"internalType":"address"},{"name":"newOwner","type":"address","indexed":true,"internalType":"address"}],"anonymous":false},{"type":"event","name":"ReceiptIdSubmitted","inputs":[{"name":"onRampId","type":"bytes32","indexed":false,"internalType":"bytes32"},{"name":"receiptId","type":"string","indexed":false,"internalType":"string"}],"anonymous":false},{"type":"event","name":"RequestOfframp","inputs":[{"name":"requestOfframpId","type":"bytes32","indexed":false,"internalType":"bytes32"},{"name":"params","type":"tuple","indexed":false,"internalType":"struct IPacificRampServiceManager.NewOfframpRequest","components":[{"name":"user","type":"address","internalType":"address"},{"name":"amount","type":"uint256","internalType":"uint256"},{"name":"amountRealWorld","type":"uint256","internalType":"uint256"},{"name":"channelAccount","type":"bytes32","internalType":"bytes32"},{"name":"channelId","type":"bytes32","internalType":"bytes32"},{"name":"requestCreatedBlock","type":"uint32","internalType":"uint32"}]}],"anonymous":false},{"type":"event","name":"RewardsInitiatorUpdated","inputs":[{"name":"prevRewardsInitiator","type":"address","indexed":false,"internalType":"address"},{"name":"newRewardsInitiator","type":"address","indexed":false,"internalType":"address"}],"anonymous":false},{"type":"event","name":"StakeSettled","inputs":[{"name":"user","type":"address","indexed":true,"internalType":"address"},{"name":"amount","type":"uint256","indexed":false,"internalType":"uint256"},{"name":"provider","type":"string","indexed":false,"internalType":"string"}],"anonymous":false},{"type":"event","name":"TaskResponded","inputs":[{"name":"taskIndex","type":"uint32","indexed":true,"internalType":"uint32"},{"name":"task","type":"tuple","indexed":false,"internalType":"struct IPacificRampServiceManager.Task","components":[{"name":"channelId","type":"string","internalType":"string"},{"name":"transactionId","type":"string","internalType":"string"},{"name":"requestOfframpId","type":"bytes32","internalType":"bytes32"},{"name":"receiver","type":"address","internalType":"address"},{"name":"taskCreatedBlock","type":"uint32","internalType":"uint32"}]},{"name":"operator","type":"address","indexed":false,"internalType":"address"}],"anonymous":false},{"type":"event","name":"Transfer","inputs":[{"name":"from","type":"address","indexed":true,"internalType":"address"},{"name":"to","type":"address","indexed":true,"internalType":"address"},{"name":"value","type":"uint256","indexed":false,"internalType":"uint256"}],"anonymous":false},{"type":"event","name":"Withdraw","inputs":[{"name":"user","type":"address","indexed":true,"internalType":"address"},{"name":"amount","type":"uint256","indexed":false,"internalType":"uint256"}],"anonymous":false},{"type":"error","name":"CallerNotOperator","inputs":[]},{"type":"error","name":"OfframpRequestAlreadyCompleted","inputs":[]},{"type":"error","name":"OfframpRequestAlreadyExists","inputs":[]},{"type":"error","name":"OfframpRequestAmountIsZero","inputs":[]},{"type":"error","name":"OfframpRequestChannelAccountIsEmpty","inputs":[]},{"type":"error","name":"OfframpRequestChannelIdIsEmpty","inputs":[]},{"type":"error","name":"OfframpRequestDoesNotExist","inputs":[]}],"bytecode":{"object":"0x610120604052346104a257613fb260a0813803918261001d816104a7565b9384928339810103126104a257610033816104cc565b61003f602083016104cc565b9161004c604082016104cc565b90610065608061005e606084016104cc565b92016104cc565b9161007060406104a7565b94600a8652691c1858da599a58d554d160b21b602087015261009260406104a7565b9460048652631c1554d160e21b602087015260a05260805260c05260e05260005460ff8160081c1661044d5760ff80821610610412575b5082516001600160401b03811161031b57609a54600181811c91168015610408575b60208210146102fb57601f81116103a3575b506020601f821160011461033c5781929394600092610331575b50508160011b916000199060031b1c191617609a555b81516001600160401b03811161031b57609b54600181811c91168015610311575b60208210146102fb57601f8111610296575b50602092601f82116001146102315792819293600092610226575b50508160011b916000199060031b1c191617609b555b61010052604051613ad190816104e18239608051818181610ad5015281816113c3015281816116c901528181611a0201528181611c390152611f81015260a051818181611053015281816113f3015281816116f201526119bd015260c05181610240015260e05181612048015261010051818181610a6201528181611586015281816118e201528181611d8a015261226a0152f35b01519050388061017b565b601f19821693609b600052806000209160005b86811061027e5750836001959610610265575b505050811b01609b55610191565b015160001960f88460031b161c19169055388080610257565b91926020600181928685015181550194019201610244565b609b6000527fbba9db4cdbea0a37c207bbb83e20f828cd4441c49891101dc94fd20dc8efc349601f830160051c810191602084106102f1575b601f0160051c01905b8181106102e55750610160565b600081556001016102d8565b90915081906102cf565b634e487b7160e01b600052602260045260246000fd5b90607f169061014e565b634e487b7160e01b600052604160045260246000fd5b015190503880610117565b601f19821690609a600052806000209160005b81811061038b57509583600195969710610372575b505050811b01609a5561012d565b015160001960f88460031b161c19169055388080610364565b9192602060018192868b01518155019401920161034f565b609a6000527f44da158ba27f9252712a74ff6a55c5d531f69609f1f6e7f17c4443a8e2089be4601f830160051c810191602084106103fe575b601f0160051c01905b8181106103f257506100fd565b600081556001016103e5565b90915081906103dc565b90607f16906100eb565b60ff90811916176000557f7f26b83ff96e1f2b6a682f133852f6798a09c465da95921460cefb3847402498602060405160ff8152a1386100c9565b60405162461bcd60e51b815260206004820152602760248201527f496e697469616c697a61626c653a20636f6e747261637420697320696e697469604482015266616c697a696e6760c81b6064820152608490fd5b600080fd5b6040519190601f01601f191682016001600160401b0381118382101761031b57604052565b51906001600160a01b03821682036104a25756fe6080604052600436101561001257600080fd5b6000803560e01c806304a9359c14612a0457806306fdde031461295d578063095ea7b314612936578063151c5860146126b257806318160ddd146126945780631dbc8e2a146123be57806323b872dd146122ff5780632d89f6fc146122c65780632e1a7d4d14612244578063313ce5671461222857806333cfb7b714611f505780633950935114611eff5780633a3c51b914611b305780633bc28c8c14611aaf578063496a304714611a3157806368304835146119ec5780636b3aa72e146119a757806370a082311461196e578063715018a6146119115780637a5457de146118cc5780638b00ce7c146118a85780638da5cb5b1461187f57806395d89b41146117b05780639926ee7d14611627578063a0712d681461150e578063a0e08a931461145b578063a364f4da146113a2578063a3e5f6ee1461119e578063a457c2d7146110f9578063a9059cbb146110c7578063a98fb35514611017578063c20bab7f14610f95578063dd62ed3e14610f40578063decca52114610b86578063e481af9d14610ab0578063e7e4e1f714610a04578063ee6f1e8b14610784578063f2fde38b146106bb578063fc299dee146106925763fce36c7d146101d557600080fd5b346102de5760203660031901126102de57600435906001600160401b0382116102de57366023830112156102de578160040135916001600160401b03831161068e57602481018360051b93366024868501011161068a576065546001600160a01b03163303610605577f0000000000000000000000000000000000000000000000000000000000000000845b82811061042657506001600160a01b031694853b1561042257906040519363fce36c7d60e01b8552816024860160206004880152526044808601938601019392869160c219813603015b8484106102ec5788808981818e8183818f03925af180156102e1576102cd5750f35b816102d791612c66565b6102de5780f35b80fd5b6040513d84823e3d90fd5b90919293949560431988820301845286358281121561041e5760a0820191908401602481013560421936839003018112156103ca57816024910101602081359101936001600160401b03821161041a578160061b3603851361041a57819060a085525260c0830193908c905b8082106103ce5750505060448101356001600160a01b038116908190036103ca579282608063ffffffff6103b660a460209796600199898099015260648101356040870152836103aa60848301612dea565b16606087015201612dea565b1691015298019401940192949391906102ab565b8b80fd5b909194853560018060a01b03811680910361041657815260208601356bffffffffffffffffffffffff8116809103610416576020820152604090810195019160010190610358565b8e80fd5b8c80fd5b8980fd5b8480fd5b8560206104876001600160a01b0361044983610443878a8c6138b5565b016138d7565b16604061045786898b6138b5565b6040516323b872dd60e01b8152336004820152306024820152910135604482015293849283919082906064820190565b03925af180156105a4576105e9575b506001600160a01b036104af60206104438487896138b5565b604051636eb1769f60e11b81523060048201526001600160a01b03851660248201529160209183916044918391165afa9081156105a45790879182916105af575b5060209061055b906105286001600160a01b0361051285610443898c8e6138b5565b16916040610521888b8d6138b5565b013561306d565b60405163095ea7b360e01b81526001600160a01b0388166004820152602481019190915293849283919082906044820190565b03925af180156105a4579060019291610576575b5001610261565b6105969060203d811161059d575b61058e8183612c66565b8101906138eb565b503861056f565b503d610584565b6040513d89823e3d90fd5b9150506020813d82116105e1575b816105ca60209383612c66565b810103126105dd5751869061055b6104f0565b8680fd5b3d91506105bd565b6106009060203d811161059d5761058e8183612c66565b610496565b60405162461bcd60e51b815260206004820152605160248201527f4543445341536572766963654d616e61676572426173652e6f6e6c795265776160448201527f726473496e69746961746f723a2063616c6c6572206973206e6f7420746865206064820152703932bbb0b932399034b734ba34b0ba37b960791b608482015260a490fd5b8380fd5b5080fd5b50346102de57806003193601126102de576065546040516001600160a01b039091168152602090f35b50346102de5760203660031901126102de576106d5612d8c565b6106dd61381b565b6001600160a01b0316801561073057603380546001600160a01b0319811683179091556001600160a01b03167f8be0079c531659141344cd1fd0a4f28419497f9722a3daafe3b4186f6b6457e08380a380f35b60405162461bcd60e51b815260206004820152602660248201527f4f776e61626c653a206e6577206f776e657220697320746865207a65726f206160448201526564647265737360d01b6064820152608490fd5b50346102de5761079336612e3e565b5060408083013580855260a06020529084208054929391926001600160a01b031691906107c1831515613253565b600281019260ff8454169060038210156109f057600182036109b35763ffffffff90604051602081019160208352604082015261080d6001860194855460608401526080830190612f59565b600385015460a082015260c0808201526108588161084a610835610100830160048a01612ed6565b828103603f190160e084015260058901612ed6565b03601f198101835282612c66565b519020961695868852609d602052604088205403610949577fedea5523e6ebf24c8284ee9f56edf7567bc047ec0f5987a98f09894288cf1533946109327f8c44f9b60bb1ab02c69ea1130186c0d43c8a12a615227792ee168bdff906d48e9361094396338b52609e60205260408b208a6000526020526108e56108df604060002054612e9c565b15613147565b805460ff1916600217905580548454610907916001600160a01b0316306133a0565b549254604080519384526001600160a01b039094166020840152928201929092529081906060820190565b0390a16040519182913390836131a6565b0390a280f35b608460405162461bcd60e51b815260206004820152604060248201527f737570706c696564207265717565737420646f6573206e6f74206d617463682060448201527f746865206f6e65207265636f7264656420696e2074686520636f6e74726163746064820152fd5b60405162461bcd60e51b815260206004820152601560248201527452657175657374206e6f7420696e20657363726f7760581b6044820152606490fd5b634e487b7160e01b88526021600452602488fd5b50346102de5760403660031901126102de576004356024356001600160401b038111610aac57610a597f6f69ebb50e24d63f12d7e859d2b0da445fb74e4b10008756a9257a116d03c822913690600401612ca2565b91610a8f8130337f00000000000000000000000000000000000000000000000000000000000000006001600160a01b0316613873565b604051908152604060208201528061094333946040830190612cec565b8280fd5b50346102de57806003193601126102de576040516302e0740360e31b815281816004817f00000000000000000000000000000000000000000000000000000000000000006001600160a01b03165afa9081156102e1578291610b64575b50610b198151516137e9565b915b81518051821015610b5257600191906001600160a01b0390610b3e9083906137b0565b515116610b4b82866137b0565b5201610b1b565b60405180610b608682612dfb565b0390f35b610b8091503d8084833e610b788183612c66565b81019061369e565b38610b0d565b50346102de5760203660031901126102de57600435908115610efb57604051602081019033825283604082015242606082015260608152610bc8608082612c66565b5190209160405192610bd984612c4b565b338452602084018281526040850194848652606081019584875260209660405191610c048984612c66565b8783526080840192835260405194610c1c8a87612c66565b88865260a0858101968752878a528a5260408920546001600160a01b0316610eb65786895260a08a5260408920945185546001600160a01b0319166001600160a01b03919091161785555160018501555160028401906003811015610ea25760ff801983541691161790555160038301556004820190518051906001600160401b038211610e8e57610cb882610cb28554612e9c565b8561301b565b8890601f8311600114610e27579180610cec9260059695948b92610d80575b50508160011b916000199060031b1c19161790565b90555b019051948551956001600160401b038711610e1357610d1287610cb28554612e9c565b81601f8811600114610d8b57509580610d639287987feb2ce3be6a6bf93e9fac2251a0723cbf06da0e42ccb719560e6d3a886159e8ab9892610d805750508160011b916000199060031b1c19161790565b90555b60408051918252336020830152810191909152606090a180f35b015190503880610cd7565b9190601f1988168488528388209388905b828210610dfb5750509160019391897feb2ce3be6a6bf93e9fac2251a0723cbf06da0e42ccb719560e6d3a886159e8ab999a9410610de2575b505050811b019055610d66565b015160001960f88460031b161c19169055388080610dd5565b80600186978294978701518155019601940190610d9c565b634e487b7160e01b86526041600452602486fd5b8389528989209190601f1984168a5b8c828210610e7857505091600193918560059897969410610e5f575b505050811b019055610cef565b015160001960f88460031b161c19169055388080610e52565b6001859682939686015181550195019301610e36565b634e487b7160e01b88526041600452602488fd5b634e487b7160e01b89526021600452602489fd5b60405162461bcd60e51b8152600481018b9052601d60248201527f4f6e52616d70207265717565737420616c7265616479206578697374730000006044820152606490fd5b60405162461bcd60e51b815260206004820152601d60248201527f416d6f756e74206d7573742062652067726561746572207468616e20300000006044820152606490fd5b50346102de5760403660031901126102de576040610f5c612d8c565b91610f65612da2565b9260018060a01b031681526098602052209060018060a01b03166000526020526020604060002054604051908152f35b50346102de5760403660031901126102de57610faf612d8c565b906024359163ffffffff8316830361068e5763ffffffff9160409160018060a01b03168152609e602052209116600052602052610b60610ffc611003604060002060405192838092612ed6565b0382612c66565b604051918291602083526020830190612cec565b50346102de5760203660031901126102de57806004356001600160401b0381116110c457611049903690600401612ca2565b61105161381b565b7f00000000000000000000000000000000000000000000000000000000000000006001600160a01b0316803b156110c05760405163a98fb35560e01b81526020600482015291839183918290849082906110af906024830190612cec565b03925af180156102e1576102cd5750f35b5050fd5b50fd5b50346102de5760403660031901126102de576110ee6110e4612d8c565b60243590336133a0565b602060405160018152f35b50346102de5760403660031901126102de57611113612d8c565b60406024359233815260986020522060018060a01b0382166000526020526040600020549180831061114b576110ee92039033613298565b60405162461bcd60e51b815260206004820152602560248201527f45524332303a2064656372656173656420616c6c6f77616e63652062656c6f77604482015264207a65726f60d81b6064820152608490fd5b50346102de576111ad36612db8565b81835260a06020526040832080549293926111d2906001600160a01b03161515613253565b600281019060ff825416600381101561138e57611349576005916111fb600183015430336133a0565b805460ff1916600117905582519491016001600160401b0385116113355761122d856112278354612e9c565b8361301b565b6020601f86116001146112b35785859661127d927f76066ff216999fdff7fc3422c244b004d2778982c48571753176698c5832a62697916112a8575b508160011b916000199060031b1c19161790565b90555b61129c6040519283928352606060208401526060830190612cec565b3360408301520390a180f35b905085015138611269565b81855280852090601f198716865b81811061131d57509187917f76066ff216999fdff7fc3422c244b004d2778982c48571753176698c5832a626979860019410611304575b5050811b019055611280565b86015160001960f88460031b161c1916905538806112f8565b9192602060018192868a0151815501940192016112c1565b634e487b7160e01b84526041600452602484fd5b60405162461bcd60e51b815260206004820152601960248201527f5265717565737420616c72656164792070726f636573736564000000000000006044820152606490fd5b634e487b7160e01b85526021600452602485fd5b50346102de5760203660031901126102de57806113bd612d8c565b6113f1337f00000000000000000000000000000000000000000000000000000000000000006001600160a01b0316146131ce565b7f00000000000000000000000000000000000000000000000000000000000000006001600160a01b031690813b156110c0576040516351b27a6d60e11b81526001600160a01b0390911660048201529082908290602490829084905af180156102e1576102cd5750f35b50346102de5760203660031901126102de57604090600435815260a06020522060018060a01b03815416610b60600561150060018501549460ff6002820154166114ea6003830154916114d3604051946114c3866114bc8160048501612ed6565b0387612c66565b6114bc6040518099819301612ed6565b604051988998895260208901526040880190612f59565b606086015260c0608086015260c0850190612cec565b9083820360a0850152612cec565b50346102de5760203660031901126102de5760043533156115e2576115358160995461306d565b60995533825260976020526040822061154f82825461306d565b9055604051818152827fddf252ad1be2c89b69c2b068fc378daa952ba7f163c4a11628f55a4df523b3ef60203393a36115b38130337f00000000000000000000000000000000000000000000000000000000000000006001600160a01b0316613873565b6040519081527f0f6798a560793a54c3bcfe86a93cde1e73087d944c0ea20544137d412139688560203392a280f35b60405162461bcd60e51b815260206004820152601f60248201527f45524332303a206d696e7420746f20746865207a65726f2061646472657373006044820152606490fd5b50346102de5760403660031901126102de57611641612d8c565b602435906001600160401b038211610aac5760606003198336030112610aac5760405190606082018281106001600160401b0382111761179c5760405283919060048401356001600160401b03811161068a576116a49060043691870101612ca2565b825260208201916024850135835260446040820195013585526116f060018060a01b037f00000000000000000000000000000000000000000000000000000000000000001633146131ce565b7f00000000000000000000000000000000000000000000000000000000000000006001600160a01b031690813b15610422578461176393819560405198899687958694639926ee7d60e01b865260018060a01b0316600486015260406024860152516060604486015260a4850190612cec565b9151606484015251608483015203925af1801561178f576117815780f35b61178a91612c66565b388180f35b50604051903d90823e3d90fd5b634e487b7160e01b85526041600452602485fd5b50346102de57806003193601126102de576040519080609b54906117d382612e9c565b808552916001811690811561185857506001146117fb575b610b608461100381860382612c66565b609b81527fbba9db4cdbea0a37c207bbb83e20f828cd4441c49891101dc94fd20dc8efc349939250905b80821061183e57509091508101602001611003826117eb565b919260018160209254838588010152019101909291611825565b60ff191660208087019190915292151560051b8501909201925061100391508390506117eb565b50346102de57806003193601126102de576033546040516001600160a01b039091168152602090f35b50346102de57806003193601126102de57602063ffffffff609c5416604051908152f35b50346102de57806003193601126102de576040517f00000000000000000000000000000000000000000000000000000000000000006001600160a01b03168152602090f35b50346102de57806003193601126102de5761192a61381b565b603380546001600160a01b0319811690915581906001600160a01b03167f8be0079c531659141344cd1fd0a4f28419497f9722a3daafe3b4186f6b6457e08280a380f35b50346102de5760203660031901126102de576020906040906001600160a01b03611996612d8c565b168152609783522054604051908152f35b50346102de57806003193601126102de576040517f00000000000000000000000000000000000000000000000000000000000000006001600160a01b03168152602090f35b50346102de57806003193601126102de576040517f00000000000000000000000000000000000000000000000000000000000000006001600160a01b03168152602090f35b50346102de5760203660031901126102de57604060e0916004358152609f6020522060ff60018060a01b038254169160018101549060028101546003820154906005600484015493015493604051968752602087015260408601526060850152608084015263ffffffff811660a084015260201c16151560c0820152f35b50346102de5760203660031901126102de57611ac9612d8c565b611ad161381b565b606554604080516001600160a01b038084168252841660208201529192917fe11cddf1816a43318ca175bbc52cd0185436e9cbead7c83acc54a73e461717e39190a16001600160a01b03166001600160a01b0319919091161760655580f35b50346102de57611b3f36612e3e565b604092919251602081019060208252611b5f8161084a60408201876130cc565b5190209263ffffffff811693848652609d602052604086205403611e9457338552609e60205260408520848652602052611b9f6108df6040872054612e9c565b604051602081019163ffffffff60e01b9060e01b16825260048152611bc5602482612c66565b51902060405160208101917f19457468657265756d205369676e6564204d6573736167653a0a3332000000008352603c820152603c8152611c07605c82612c66565b51902060405190630b135d3f60e11b825260048201526040602482015260208180611c356044820186612cec565b03817f00000000000000000000000000000000000000000000000000000000000000006001600160a01b03165afa908115611e89578591611e46575b506001600160e01b031916630b135d3f60e11b0361068a57338452609e6020526040842083855260205260408420908051906001600160401b038211610e1357611cbf82610cb28554612e9c565b602090601f8311600114611de357611cee9291879183610d805750508160011b916000199060031b1c19161790565b90555b6040818101358452609f602052832080546001600160a01b031615611dd45760058101805460ff8160201c16611dc55764ff0000000019166401000000001790556001018054909190611d449030613526565b6060810135906001600160a01b03821682036104225791547fedea5523e6ebf24c8284ee9f56edf7567bc047ec0f5987a98f09894288cf153392610943929091611db7917f00000000000000000000000000000000000000000000000000000000000000006001600160a01b031661363d565b6040519182913390836131a6565b63c06d432360e01b8652600486fd5b6314e818f960e31b8452600484fd5b8387528187209190601f198416885b818110611e2e5750908460019594939210611e15575b505050811b019055611cf1565b015160001960f88460031b161c19169055388080611e08565b92936020600181928786015181550195019301611df2565b90506020813d602011611e81575b81611e6160209383612c66565b8101031261042257516001600160e01b0319811681036104225738611c71565b3d9150611e54565b6040513d87823e3d90fd5b60405162461bcd60e51b815260206004820152603d60248201527f737570706c696564207461736b20646f6573206e6f74206d617463682074686560448201527f206f6e65207265636f7264656420696e2074686520636f6e74726163740000006064820152608490fd5b50346102de5760403660031901126102de576110ee90611f496040611f22612d8c565b338452609860209081528285206001600160a01b038316865290529220546024359061306d565b9033613298565b50346102de5760203660031901126102de57611f6a612d8c565b6040516302e0740360e31b815290919081816004817f00000000000000000000000000000000000000000000000000000000000000006001600160a01b03165afa9081156102e157829161220e575b509182515191611fc883613687565b91611fd66040519384612c66565b838352611fe284613687565b602084019590601f1901368737825b8581106121e057505060408051639004134760e01b81526001600160a01b0390921660048301526024820152825160448201819052909490829086906064820190835b8181106121bb5750929350909150819003817f00000000000000000000000000000000000000000000000000000000000000006001600160a01b03165afa93841561178f578194612125575b5080815b8481106120f95750612095906137e9565b93815b8481106120ad5760405180610b608882612dfb565b6120b781836137b0565b516120c5575b600101612098565b916001906120f1906001600160a01b036120df86886137b0565b51166120eb828a6137b0565b526137da565b9290506120bd565b61210381876137b0565b51612111575b600101612084565b9061211d6001916137da565b919050612109565b9093503d8085833e6121378183612c66565b810190602081830312610422578051906001600160401b0382116121b757019080601f8301121561042257815161216d81613687565b9261217b6040519485612c66565b81845260208085019260051b8201019283116105dd57602001905b8282106121a7575050509238612080565b8151815260209182019101612196565b8580fd5b85516001600160a01b031683526020958601958795508a945090920191600101612034565b600190818060a09995991b036121f78285516137b0565b51511661220482886137b0565b5201959195611ff1565b61222291503d8084833e610b788183612c66565b38611fb9565b50346102de57806003193601126102de57602060405160128152f35b50346102de5760203660031901126102de576004356122638133613526565b61229781337f00000000000000000000000000000000000000000000000000000000000000006001600160a01b031661363d565b6040519081527f884edad9ce6fa2440d8a54cc123490eb96d2768479d49ff9c7366125a942436460203392a280f35b50346102de5760203660031901126102de5760043563ffffffff811680910361068e578160409160209352609d83522054604051908152f35b50346102de5760603660031901126102de57612319612d8c565b90612322612da2565b6001600160a01b0383168252609860209081526040808420338552909152909120549160443591906001840161235d575b6110ee93506133a0565b82841061237957612374836110ee95033383613298565b612353565b60405162461bcd60e51b815260206004820152601d60248201527f45524332303a20696e73756666696369656e7420616c6c6f77616e63650000006044820152606490fd5b50346102de576123cd36612db8565b90916123d7612f7c565b83825260a06020526040822080549193916001600160a01b0316330361264f5760ff600282015416600381101561263b576001036125f657600401938151946001600160401b03861161133557612432866112278354612e9c565b602095601f811160011461256f5790612487827f2800fecaafffb3290df0080e6c4b2120234ce79a0ac0e473ee44797a498eb6f1959493610b609988916112a857508160011b916000199060031b1c19161790565b90555b60409384516124998682612c66565b600681526506f6e52616d760d41b60208201528652826020870152818587015233606087015263ffffffff4316608087015284805160208101906124e18161084a8b85612d2d565b5190209163ffffffff609c54168152609d6020522055609c5463ffffffff61253c818316807f0b4e2ffdd3e1b42c57566666298c9850aa20414a992ae44175b5ef4c57cd37518951806125348d82612d2d565b0390a2612fa9565b169063ffffffff191617609c556125628451928392835285602084015285830190612cec565b0390a15191829182612d2d565b81855286852096601f198216865b8181106125de575091610b6098600192827f2800fecaafffb3290df0080e6c4b2120234ce79a0ac0e473ee44797a498eb6f198979695106125c5575b5050811b01905561248a565b86015160001960f88460031b161c1916905538806125b9565b868301518a556001909901986020928301920161257d565b60405162461bcd60e51b815260206004820152601860248201527f52657175657374206973206e6f7420696e20657363726f7700000000000000006044820152606490fd5b634e487b7160e01b84526021600452602484fd5b60405162461bcd60e51b815260206004820152601d60248201527f4f6e6c792062757965722063616e207375626d697420726563656970740000006044820152606490fd5b50346102de57806003193601126102de576020609954604051908152f35b50346102de5760a03660031901126102de576040516126d081612c1a565b6126d8612d8c565b81526024356020820181815260408301906044358252606084016064358152608085019360843585521561292757825115612927578051156129195783511561290a57338552815183526040519361272f85612c4b565b868552602080860188815260408088018a8152606089018b815260808a018c815260a08b018d81528c516001600160a01b03168c528951909552895190925286519052845190524363ffffffff168252519093918101906127908289612fd7565b60c0815261279f60e082612c66565b519020808952609f60205260408920549097906001600160a01b03166128fb5763ffffffff906127d1865130336133a0565b519451955191519251935160405191169590946001600160a01b031660e086016001600160401b038111878210176128e75760409081529086526020808701928352868201938452606087019485526080870195865260a0870197885260c087018b81528a8c52609f8252828c20975188546001600160a01b0319166001600160a01b0390911617885592516001880155925160028701559251600386015592516004850155935160059093018054925164ffffffffff1990931663ffffffff90941693909317911515841b64ff000000001691909117909155519283527f52fb2af8546eef3a3648e9a8db5c66f5d6f9deb7fc20eef61f8ffd01b21c8f169260e09290916128e39190830190612fd7565ba180f35b634e487b7160e01b8b52604160045260248bfd5b63353cdab760e21b8952600489fd5b63615f809760e01b8652600486fd5b62573e6160e71b8652600486fd5b63264f480b60e11b8652600486fd5b50346102de5760403660031901126102de576110ee612953612d8c565b6024359033613298565b50346102de57806003193601126102de576040519080609a549061298082612e9c565b808552916001811690811561185857506001146129a757610b608461100381860382612c66565b609a81527f44da158ba27f9252712a74ff6a55c5d531f69609f1f6e7f17c4443a8e2089be4939250905b8082106129ea57509091508101602001611003826117eb565b9192600181602092548385880101520191019092916129d1565b50346102de5760603660031901126102de576004356024356001600160401b038111610aac57612a38903690600401612ca2565b906044356001600160401b03811161068a57612a58903690600401612ca2565b91612a61612f7c565b828552609f602052604085208054919490916001600160a01b031615612c0b57600582019260ff845460201c16612bfc5791610b6096608094927f28632964c2655977781f1b112a838c0e919674f019de8ff0b5c5ead7a2ab62f196948852602088015283604088015233606088015263ffffffff431685880152604080516020810190612af38161084a8c85612d2d565b5190209163ffffffff609c54168152609d6020522055609c5463ffffffff612b49818316807f0b4e2ffdd3e1b42c57566666298c9850aa20414a992ae44175b5ef4c57cd37516125348c60405191829182612d2d565b169063ffffffff191617609c556040516020810190612b6c8161084a8a85612d2d565b5190209160ff604051916004602084019460018060a01b0381541686526001810154604086015260028101546060860152600381015489860152015460a08401525463ffffffff811660c084015260201c16151560e082015260e08152612bd561010082612c66565b5190209060405192835233602084015260408301526060820152a160405191829182612d2d565b63c06d432360e01b8752600487fd5b6314e818f960e31b8652600486fd5b60a081019081106001600160401b03821117612c3557604052565b634e487b7160e01b600052604160045260246000fd5b60c081019081106001600160401b03821117612c3557604052565b90601f801991011681019081106001600160401b03821117612c3557604052565b6001600160401b038111612c3557601f01601f191660200190565b81601f82011215612ce757602081359101612cbc82612c87565b92612cca6040519485612c66565b82845282820111612ce75781600092602092838601378301015290565b600080fd5b919082519283825260005b848110612d18575050826000602080949584010152601f8019910116010190565b80602080928401015182828601015201612cf7565b6020815260a063ffffffff6080612d68612d52865185602088015260c0870190612cec565b6020870151868203601f19016040880152612cec565b9460408101516060860152600180851b036060820151168286015201511691015290565b600435906001600160a01b0382168203612ce757565b602435906001600160a01b0382168203612ce757565b906040600319830112612ce75760043591602435906001600160401b038211612ce757612de791600401612ca2565b90565b359063ffffffff82168203612ce757565b602060408183019282815284518094520192019060005b818110612e1f5750505090565b82516001600160a01b0316845260209384019390920191600101612e12565b6060600319820112612ce7576004356001600160401b038111612ce75760a08183036003190112612ce7576004019160243563ffffffff81168103612ce75791604435906001600160401b038211612ce757612de791600401612ca2565b90600182811c92168015612ecc575b6020831014612eb657565b634e487b7160e01b600052602260045260246000fd5b91607f1691612eab565b60009291815491612ee683612e9c565b8083529260018116908115612f3c5750600114612f0257505050565b60009081526020812093945091925b838310612f22575060209250010190565b600181602092949394548385870101520191019190612f11565b915050602093945060ff929192191683830152151560051b010190565b906003821015612f665752565b634e487b7160e01b600052602160045260246000fd5b60405190612f8982612c1a565b600060808360608152606060208201528260408201528260608201520152565b63ffffffff60019116019063ffffffff8211612fc157565b634e487b7160e01b600052601160045260246000fd5b63ffffffff60a08092600180831b03815116855260208101516020860152604081015160408601526060810151606086015260808101516080860152015116910152565b601f821161302857505050565b6000526020600020906020601f840160051c83019310613063575b601f0160051c01905b818110613057575050565b6000815560010161304c565b9091508190613043565b91908201809211612fc157565b9035601e1982360301811215612ce75701602081359101916001600160401b038211612ce7578136038313612ce757565b908060209392818452848401376000828201840152601f01601f1916010190565b906131066130eb6130dd848061307a565b60a0855260a08501916130ab565b6130f8602085018561307a565b9084830360208601526130ab565b604083810135908301529160608101356001600160a01b03811690819003612ce7576131406080809363ffffffff93606087015201612dea565b1691015290565b1561314e57565b60405162461bcd60e51b815260206004820152602a60248201527f4f70657261746f722068617320616c726561647920726573706f6e64656420746044820152696f20746865207461736b60b01b6064820152608490fd5b906131be6020919493946040845260408401906130cc565b6001600160a01b03909416910152565b156131d557565b60405162461bcd60e51b815260206004820152604a60248201527f4543445341536572766963654d616e61676572426173652e6f6e6c795374616b60448201527f6552656769737472793a2063616c6c6572206973206e6f7420746865207374616064820152696b65526567697374727960b01b608482015260a490fd5b1561325a57565b60405162461bcd60e51b815260206004820152601660248201527514995c5d595cdd08191bd95cc81b9bdd08195e1a5cdd60521b6044820152606490fd5b6001600160a01b031690811561334f576001600160a01b03169182156132ff5760207f8c5be1e5ebec7d5bd14f71427d1e84f3dd0314c0f7b2291e5b200ac8c7c3b925918360005260988252604060002085600052825280604060002055604051908152a3565b60405162461bcd60e51b815260206004820152602260248201527f45524332303a20617070726f766520746f20746865207a65726f206164647265604482015261737360f01b6064820152608490fd5b60405162461bcd60e51b8152602060048201526024808201527f45524332303a20617070726f76652066726f6d20746865207a65726f206164646044820152637265737360e01b6064820152608490fd5b6001600160a01b03169081156134d3576001600160a01b03169182156134825781600052609760205260406000205481811061342e57817fddf252ad1be2c89b69c2b068fc378daa952ba7f163c4a11628f55a4df523b3ef926020928560005260978452036040600020558460005260978252604060002061342382825461306d565b9055604051908152a3565b60405162461bcd60e51b815260206004820152602660248201527f45524332303a207472616e7366657220616d6f756e7420657863656564732062604482015265616c616e636560d01b6064820152608490fd5b60405162461bcd60e51b815260206004820152602360248201527f45524332303a207472616e7366657220746f20746865207a65726f206164647260448201526265737360e81b6064820152608490fd5b60405162461bcd60e51b815260206004820152602560248201527f45524332303a207472616e736665722066726f6d20746865207a65726f206164604482015264647265737360d81b6064820152608490fd5b6001600160a01b031680156135ee5780600052609760205260406000205482811061359e5782908260005260976020520360406000205560995491808303928311612fc15760207fddf252ad1be2c89b69c2b068fc378daa952ba7f163c4a11628f55a4df523b3ef91600094609955604051908152a3565b60405162461bcd60e51b815260206004820152602260248201527f45524332303a206275726e20616d6f756e7420657863656564732062616c616e604482015261636560f01b6064820152608490fd5b60405162461bcd60e51b815260206004820152602160248201527f45524332303a206275726e2066726f6d20746865207a65726f206164647265736044820152607360f81b6064820152608490fd5b60405163a9059cbb60e01b60208201526001600160a01b03909216602483015260448201929092526136859161368082606481015b03601f198101845283612c66565b613903565b565b6001600160401b038111612c355760051b60200190565b602081830312612ce7578051906001600160401b038211612ce7570190602082820312612ce75760405191602083018381106001600160401b03821117612c35576040528051906001600160401b038211612ce7570181601f82011215612ce75780519061370b82613687565b926137196040519485612c66565b82845260208085019360061b83010191818311612ce757602001925b8284106137455750505050815290565b604084830312612ce75760405190604082018281106001600160401b03821117612c355760405284516001600160a01b0381168103612ce75782526020850151906bffffffffffffffffffffffff82168203612ce75782602092836040950152815201930192613735565b80518210156137c45760209160051b010190565b634e487b7160e01b600052603260045260246000fd5b6000198114612fc15760010190565b906137f382613687565b6138006040519182612c66565b8281528092613811601f1991613687565b0190602036910137565b6033546001600160a01b0316330361382f57565b606460405162461bcd60e51b815260206004820152602060248201527f4f776e61626c653a2063616c6c6572206973206e6f7420746865206f776e65726044820152fd5b6040516323b872dd60e01b60208201526001600160a01b0392831660248201529290911660448301526064820192909252613685916136808260848101613672565b91908110156137c45760051b81013590609e1981360301821215612ce7570190565b356001600160a01b0381168103612ce75790565b90816020910312612ce757518015158103612ce75790565b60408051909290916001600160a01b031661391e8484612c66565b602083527f5361666545524332303a206c6f772d6c6576656c2063616c6c206661696c65646020840152803b15613a1357600082819282602061398f9796519301915af13d15613a0b573d9061397382612c87565b9161398086519384612c66565b82523d6000602084013e613a57565b8051908161399c57505050565b6020806139ad9383010191016138eb565b156139b55750565b5162461bcd60e51b815260206004820152602a60248201527f5361666545524332303a204552433230206f7065726174696f6e20646964206e6044820152691bdd081cdd58d8d9595960b21b6064820152608490fd5b606090613a57565b835162461bcd60e51b815260206004820152601d60248201527f416464726573733a2063616c6c20746f206e6f6e2d636f6e74726163740000006044820152606490fd5b90919015613a63575090565b815115613a735750805190602001fd5b60405162461bcd60e51b815260206004820152908190613a97906024830190612cec565b0390fdfea2646970667358221220e4b9664eebb3dee1491540d6a71c4bfbce544194885f2b48a43a67928a68ba2164736f6c634300081a0033","linkReferences":{}},"methodIdentifiers":{"acceptOnRamp(bytes32,string)":"a3e5f6ee","allTaskHashes(uint32)":"2d89f6fc","allTaskResponses(address,uint32)":"c20bab7f","allowance(address,address)":"dd62ed3e","approve(address,uint256)":"095ea7b3","avsDirectory()":"6b3aa72e","balanceOf(address)":"70a08231","completeOfframp((string,string,bytes32,address,uint32),uint32,bytes)":"3a3c51b9","completeOnramp((string,string,bytes32,address,uint32),uint32,bytes)":"ee6f1e8b","createAVSRewardsSubmission(((address,uint96)[],address,uint256,uint32,uint32)[])":"fce36c7d","decimals()":"313ce567","decreaseAllowance(address,uint256)":"a457c2d7","deregisterOperatorFromAVS(address)":"a364f4da","fillOfframp(bytes32,string,string)":"04a9359c","getOperatorRestakedStrategies(address)":"33cfb7b7","getRestakeableStrategies()":"e481af9d","increaseAllowance(address,uint256)":"39509351","latestTaskNum()":"8b00ce7c","mint(uint256)":"a0712d68","name()":"06fdde03","offrampRequests(bytes32)":"496a3047","onrampRequests(bytes32)":"a0e08a93","owner()":"8da5cb5b","registerOperatorToAVS(address,(bytes,bytes32,uint256))":"9926ee7d","renounceOwnership()":"715018a6","requestOfframp((address,uint256,uint256,bytes32,bytes32))":"151c5860","requestOnRamp(uint256)":"decca521","rewardsInitiator()":"fc299dee","setRewardsInitiator(address)":"3bc28c8c","stake(uint256,string)":"e7e4e1f7","stakeRegistry()":"68304835","submitReceiptId(bytes32,string)":"1dbc8e2a","symbol()":"95d89b41","totalSupply()":"18160ddd","transfer(address,uint256)":"a9059cbb","transferFrom(address,address,uint256)":"23b872dd","transferOwnership(address)":"f2fde38b","underlyingUSD()":"7a5457de","updateAVSMetadataURI(string)":"a98fb355","withdraw(uint256)":"2e1a7d4d"},"id":112}