{"abi":[{"type":"function","name":"createTokenRoot","inputs":[{"name":"tokenLeaves","type":"bytes32[]","internalType":"bytes32[]"}],"outputs":[{"name":"","type":"bytes32","internalType":"bytes32"}],"stateMutability":"pure"}],"bytecode":{"object":"0x60808060405234601b5761052890816100218239308160350152f35b600080fdfe6080604052600436101561001257600080fd5b60003560e01c80631a4121f7146101ea5763c3e8a50f1461003257600080fd5b307f0000000000000000000000000000000000000000000000000000000000000000146101e55760403660031901126101e55760043567ffffffffffffffff81116101e557366023820112156101e557806004013567ffffffffffffffff81116101e5573660248260051b840101116101e55760243567ffffffffffffffff81116101e5576100c5903690600401610294565b916100cf8261027c565b926100dd604051948561025a565b828452601f196100ec8461027c565b0160005b8181106101c057505060005b83811015610165576024600582901b840101356001600160a01b038116906000908290036101625750906001916101328461034d565b6040519161013f83610228565b8252602082015261015082886102f1565b5261015b81876102f1565b50016100fc565b80fd5b8460405180916020820160208352815180915260206040840192019060005b818110610192575050500390f35b825180516001600160a01b031685526020908101518186015286955060409094019390920191600101610184565b6020906040516101cf81610228565b60008152600083820152828289010152016100f0565b600080fd5b60203660031901126101e55760043567ffffffffffffffff81116101e55761022061021b6020923690600401610294565b61034d565b604051908152f35b6040810190811067ffffffffffffffff82111761024457604052565b634e487b7160e01b600052604160045260246000fd5b90601f8019910116810190811067ffffffffffffffff82111761024457604052565b67ffffffffffffffff81116102445760051b60200190565b9080601f830112156101e55781356102ab8161027c565b926102b9604051948561025a565b81845260208085019260051b8201019283116101e557602001905b8282106102e15750505090565b81358152602091820191016102d4565b80518210156103055760209160051b010190565b634e487b7160e01b600052603260045260246000fd5b906103258261027c565b610332604051918261025a565b8281528092610343601f199161027c565b0190602036910137565b9060028251905b8181106104ea57610365915061031b565b60005b8351811015610390578061037e600192866102f1565b5161038982856102f1565b5201610368565b5090915080518060011c916103a48361031b565b9260005b8181106104795750505060021c805b6103ca5750805115610305576020015190565b60005b8181106103de575060011c806103b7565b600181901b6001600160ff1b0382168203610463576103fd81856102f1565b519060006001820180921161044f57509061041b60019392866102f1565b51604051906020820192835260408201526040815261043b60608261025a565b51902061044882866102f1565b52016103cd565b634e487b7160e01b81526011600452602490fd5b634e487b7160e01b600052601160045260246000fd5b600181901b6001600160ff1b03821682036104635761049881856102f1565b519060006001820180921161044f5750906104b660019392866102f1565b5160405190602082019283526040820152604081526104d660608261025a565b5190206104e382886102f1565b52016103a8565b60011b61035456fea26469706673582212201047d750e2b72c977bcc8f713c77f81b87da32eca361834cb8ed861da9f600f564736f6c634300081a0033","linkReferences":{}},"methodIdentifiers":{"createEarnerLeaves(address[],bytes32[])":"c3e8a50f","createTokenRoot(bytes32[])":"1a4121f7"},"id":110}